:020000040800F2
:10000000F01600209D010008872600089B1E0008AE
:1000100085260008F7020008833100080000000070
:1000200000000000000000000000000005010008C2
:1000300021080008000000004901000825300008E0
:10004000B7010008B7010008B7010008B7010008B0
:10005000B7010008B7010008B7010008B7010008A0
:10006000B7010008B7010008B7010008B701000890
:10007000B7010008B7010008B7010008B701000880
:10008000B7010008B7010008B7010008B701000870
:10009000B7010008B7010008B7010008B701000860
:1000A000B7010008A1300008B7010008B701000837
:1000B000B7010008B7010008B7010008B701000840
:1000C000B7010008B7010008B7010008B701000830
:1000D000B7010008B7010008B7010008B701000820
:1000E000B7010008B7010008B7010008DFF810D019
:1000F00000F0E0F800480047E1370008AFF3008067
:10010000F0160020224B19680868B0E8F00F80F361
:100110000988BFF36F8F4FF0000080F311884EF015
:100120000D0E70470000000006480068006880F36C
:10013000088862B661B6BFF34F8FBFF36F8F00DFE1
:1001400000BF00BF08ED00E0EFF30980BFF36F8F41
:100150000F4B1A6820E9F00F106008B54FF05000FF
:1001600080F31188BFF34F8FBFF36F8F03F0F4FE5E
:100170004FF0000080F31188BDE808401968086856
:10018000B0E8F00F80F30988BFF36F8F704700BFAE
:1001900064000020EFF305807047000006488047A8
:1001A00006480047FEE7FEE7FEE7FEE7FEE7FEE75C
:1001B000FEE7FEE7FEE7FEE79F300008ED000008DF
:1001C000202A04DB203A21FA02F00021704721FAAC
:1001D00002F3D040C2F12002914008431946704713
:1001E00040EA01039B0703D009E008C9121F08C0B9
:1001F000042AFAD203E011F8013B00F8013B521E39
:10020000F9D27047D2B201E000F8012B491EFBD2AF
:1002100070470022F6E710B513460A460446194611
:10022000FFF7F0FF204610BD421C10F8011B00290B
:10023000FBD1801A704710B5002200E0521C835C8D
:100240008C5CA34201D1002BF8D1D8B2E1B2401AA4
:1002500010BD2DE9F05F0546002092469B4688467A
:100260000646814640241BE0284641464746224632
:10027000FFF7A6FF53465A46C01A914110D31146C4
:100280001846224600F028F82D1A67EB01084F4661
:1002900022460120002100F01FF817EB00094E4113
:1002A000201EA4F10104DFDC484631462A464346BD
:1002B000BDE8F09F064C074D06E0E06840F0010302
:1002C00094E8070098471034AC42F6D3FFF712FFCA
:1002D000D8420008F8420008202A04DB203A00FA3D
:1002E00002F1002070479140C2F1200320FA03F38D
:1002F000194390407047FEE770B50024282003F0B2
:10030000CFF90D4E4FF480452946304600F030FCC1
:1003100050B9502003F0C4F92946304600F028FCBB
:1003200008B1012400E0FF242946304600F020FCFB
:100330000028F9D1204670BD001001402DE9F041A0
:10034000144E00244FF001084FF4804739463046E0
:1003500000F00EFC0028F9D0282003F0A1F939465E
:10036000304600F005FC0028C4F1070108FA01F04E
:100370000ED02843C5B23946304600F0F9FB0028BC
:10038000F9D1641CE4B2082CE0D32846BDE8F08122
:100390008543F0E70010014070B5134D4FF48044E1
:1003A0002146284602F026FA01222146284600F07E
:1003B000ECFB4FF47A7003F073F9002221462846D3
:1003C00000F0E3FB44F2506003F06AF90122214699
:1003D000284600F0DAFB142003F062F92146284693
:1003E000BDE8704002F0FCB9001001407FB5044642
:1003F00000F0BBF910B1012004B070BD00258DF8EC
:1004000004508DF80C50206900902179012303AA33
:10041000206800F0AFFDD0B9206900902179012358
:1004200001AA206800F084FC88B99DF804000295B8
:1004300020F080008DF804008DF8090020690090FC
:100440002179022302AA206800F094FD08B102205D
:10045000D2E704B02046BDE8704000F086B910B580
:10046000044600F082F908B1012010BD204600F0DA
:1004700094F940F01001204600F0B2F92046BDE8A2
:10048000104000F072B92DE9FF4107460E460846BC
:1004900000F06BF900287DD100248DF80C40306904
:1004A00064F30F05009064F3174564F31F65317919
:1004B000012303AA306800F05DFD00286AD130698D
:1004C00000903179082301AA306800F031FC00283F
:1004D00060D19DF8040000F00F02C0F3021002EB9F
:1004E000146100EB800001EB400060F31F649DF895
:1004F000050000F00F02C0F3021002EB144100EB04
:10050000800001EB400060F317449DF806004106AF
:100510000BD400F00F02C0F3011002EB142100EB2A
:10052000800001EB400060F30F249DF8070000F00D
:100530000F01C0F30110214400EB800001EB4000EB
:100540009DF8081060F3070401F00F00C1F30111DA
:1005500001EB810100EB41009DF8091060F31F657C
:1005600001F00F00C1F3001101EB810100EB41002C
:100570009DF80A1060F3174501F00F00090901EB1F
:10058000810100F5FA6000EB410060F30F05304691
:1005900000F0EBF83D607C60BDE8FF8110B50446DB
:1005A000C068216808602168A06848602168002050
:1005B00088602168C86022684FF480411161216819
:1005C0008861206800F06CFD206800F0EDFA20469C
:1005D000BDE8104000F0C9B870B50C46054600F003
:1005E000C4F808B1012070BD284600F0D6F800F02C
:1005F000FC0104F003000143284600F0F1F828460E
:10060000BDE8704000F0B1B8FEB50D461446064690
:1006100000F0ABF808B10120FEBD0020014601AAA0
:100620001154401C0828FBDB210E0A23B1FBF3F018
:1006300003FB10109DF805201043B1FBF3F203FB00
:100640001212891A91FBF3F140EA011020F08000A8
:100650008DF80500C4F30740B0FBF3F103FB110173
:100660009DF806201143B0FBF3F203FB1202801A3F
:1006700090FBF3F041EA00108DF80600C4F3072068
:10068000B0FBF3F103FB11019DF807201143B0FB10
:10069000F3F203FB1202801A90FBF3F041EA001020
:1006A00020F040008DF80700E0B2B0FBF3F103FB4F
:1006B00011019DF808201143B0FBF3F203FB120275
:1006C000801A90FBF3F041EA00108DF80800290E23
:1006D000B1FBF3F003FB10109DF809201043B1FBB0
:1006E000F3F203FB1212891A91FBF3F140EA0110B5
:1006F0008DF80900C5F30740B0FBF3F103FB1101CE
:100700009DF80A201143B0FBF3F203FB1202801A9A
:1007100090FBF3F041EA00108DF80A00AAB2A2F5AE
:10072000FA6090FBF3F103FB11019DF80B402143AC
:1007300090FBF3F403FB1400101AA0F5FA6090FB91
:10074000F3F041EA00108DF80B0030690090317928
:10075000082301AA306800F00DFC08B10220FEBD9C
:100760003046BDE8FE40AFF3008070B504464FF060
:10077000E026B569206800F013FA202804D020692B
:10078000B1690844A842F4D8206800F009FA20288A
:1007900001D0012070BD002070BD1CB50446FFF7DC
:1007A000E4FFA0B907208DF80400206900902179AA
:1007B000012301AA206800F0DDFB40B92069009008
:1007C0002179012301AA206800F0B2FA08B10020C3
:1007D0001CBD2046FFF7C9FF9DF804001CBD0000AA
:1007E0007CB50D460446FFF7C0FF08B101207CBD73
:1007F0000AA00223006801908DF80550206900903E
:10080000217901AA206800F0B5FB08B102207CBD67
:100810002046BDE87C40FFF7A8BF000007000000AD
:10082000704700000C49CA68D207FCD10A6942F03F
:1008300002020A614861086940F040000861C86826
:10084000C007FCD1086920F001000861086920F0A8
:100850000200086170470000002002407CB5154688
:100860000E46044600F080F83046FFF7DBFF2146D5
:10087000304600F03BF8642000F064F8002000905F
:100880000190084808A10278684602F07BFC00F05D
:100890006BF82846FFF7C6FF6946284600F026F8A1
:1008A0007CBD0000520000202564000070B5144695
:1008B0000D46064602F000FF6088C14311F0FF0FAD
:1008C00009D0C1B22078303800EB800001EB400045
:1008D0003038002206E02078FAE700BF15F8121041
:1008E000B154521C8242F9DB70BD000070B50D4658
:1008F000064600F039F8114C206940F001002061F3
:100900002846FFF791FC0E49C0B20022087006E0AD
:10091000E168C907FCD1A95C26F81210521C82427A
:10092000F6DBE068C007FCD1206920F001002061FF
:10093000206940F08000206170BD0000002002406E
:100940005200002070B5044600F024F90546601CF2
:1009500002D004480078044400F01CF9401BA04277
:10096000FAD370BD54000020064900200A6912061F
:1009700007D5054A4A60054A4A600969090600D553
:10098000012070470020024023016745AB89EFCD6D
:100990002DE9F84FDFF8B891002409F1040A0AF1B3
:1009A000040B23460F270BF1040EC9E00125A540D7
:1009B0002A40AA427DD1674ED1F804C0ACEB0608AC
:1009C000B44532D014DCBCF1030F3AD009DCBCF1E1
:1009D000000F2AD0BCF1010F1CD0BCF1020F31D1A5
:1009E0001DE0BCF1110F17D0BCF1120F2AD119E094
:1009F000B8F5881F19D006DCB8F5803F15D0B8F5DA
:100A0000801F1FD111E0B8F5001F0ED0B8F5041FEC
:100A100018D10AE0CB6815E0CB681B1D12E0CB684B
:100A200008330FE0CB680C330CE08B682BB1012B43
:100A30004FF0080303D0456104E0042302E00561A0
:100A400000E00023FF2A01D8064601E000F1040679
:100A50004FEA840501D9A5F12005D6F8008007FAF0
:100A600005FC28EA0C0803FA05F548EA0508C6F86B
:100A700000804D68ED0062D5374DAE6946F0010645
:100A8000AE61AD6924F0030605F001050095334D14
:100A900006EB050CDCF80850A607360F07FA06F837
:100AA00025EA0805DFF8B880404503D14FF000087B
:100AB00017E044E0DFF8AC80404502D14FF0010878
:100AC0000FE0DFF8A480404502D14FF0020808E0B3
:100AD000DFF89880404502D14FF0030801E04FF065
:100AE000040808FA06F848EA0508CCF808804D68BA
:100AF000D9F80060ED034D4601D5164300E096435A
:100B00002E604D68DAF80060AD03554601D51643F6
:100B100000E096432E604D68DBF80060ED025D4614
:100B200001D5164300E096432E604D68DEF8006064
:100B3000AD02754601D5164300E096432E60641C55
:100B40000D682A46E5407FF431AFBDE8F88F00001C
:100B5000000401400000111000100240000001409C
:100B600000080140000C0140001001400014014049
:100B70008068084000D001207047C26821EA020363
:100B80000A4043EA0241016170470AB101617047BE
:100B90000904FBE70148806870470000540000200A
:100BA00090F83D007047000070B5040025D094F81F
:100BB0003D00002520B984F83C50204600F070FA32
:100BC000242084F83D002068016821F001010160C3
:100BD0002068016841F4004101602068016821F447
:100BE0000041016000F0F8FB4D4A6168914201D874
:100BF0004C4900E04C49884201D2012070BD4B496C
:100C00002368B0FBF1F15E6826F03F060E435E609C
:100C10006368934206D94FF4967359434FF47A733D
:100C2000B1FBF3F12368491C1E6A26F03F063143ED
:100C300019626168914210D84900401EB0FBF1F280
:100C4000521CC2F30B02042A01D2042022E0B0FBA2
:100C5000F1F0401CC0F30B001CE0A268F2B301EB02
:100C6000C10303EB0116431EB3FBF6F35B1C43F415
:100C700080431B0549D092B301EBC10202EB011185
:100C8000401EB0FBF1F0401CC0F30B0040F480406C
:100C900040F400402168CA694CF6FF739A43104340
:100CA000C861D4E9071001432068026822F0C0023D
:100CB00011430160D4E9030101432068826848F2CE
:100CC000FF339A4311438160D4E905010843216849
:100CD000CA6822F0FF021043C86001E00EE016E08F
:100CE0002068016841F0010101602564202084F83A
:100CF0003D00256384F83E50002070BD01EB4106A5
:100D0000431EB3FBF6F35B1CB3E70120C2E701EB24
:100D10004101401EB0FBF1F0401CC0F30B00B7E7EF
:100D2000A086010080841E0000093D0040420F00A3
:100D30002DE9F84F0025DDF82890984617468A4699
:100D400004460095FFF726FF064694F83D0020284C
:100D50007AD11923012283492046009601F0A0F997
:100D60000028F5D194F83C0001286DD0012084F8CA
:100D70003C0020680168C90703D1016841F0010106
:100D800001602068016821F400610160222084F87C
:100D90003D00102084F83E0025646762A4F82A8094
:100DA000608D20857048E06233464A4651462046B1
:100DB00001F08CF800287DD1208DDFF8B08120274C
:100DC00068B1012814D00228206801681ED041F4BF
:100DD000806101602068416980690090B5E0206809
:100DE000416981690091016841F400710160ACE0E2
:100DF0002068016821F48061016072B62068416951
:100E000081690091016841F400710AE041F40061D8
:100E1000016072B62068416981690091016821F41E
:100E20008061016062B690E0032868D801280CD088
:100E300002284B464FF000024146204600960FD054
:100E400001F02EF9B0BB10E08AE032464946204658
:100E500001F0A5F970BB20680069616A08706BE059
:100E600001F01EF930BB72B634E02068016821F44D
:100E70008061016072B620680069616A0870606A0A
:100E8000401C6062208D401E2085608D401E608564
:100E9000374846F2A8110068B0FBF1F0C0EBC00083
:100EA00000EB80000090401E009008D02068406950
:100EB000C04300E029E040070CD50098F3E744F870
:100EC000305F6773A573206940F02000206162B62F
:100ED00025731AE02068016841F400710160206800
:100EE0000069616A0870606A401C6062218D491E59
:100EF0002185618D491E618562B621681AE03246FE
:100F00004946204601F04BF910B10120BDE8F88FA9
:100F100020680069616A0870606A401C6062218D07
:100F2000491E2185618D491E618521684A69D24328
:100F300052070AD409690170606A401C6062208D02
:100F4000401E2085608D401E6085208D00287FF426
:100F50006BAF84F83D7084F83E5084F83C50D5E780
:100F60000220D3E7020010000000FFFF0400010090
:100F7000600000202DE9F84F1F4690468A4604463F
:100F8000DDF82890FFF706FE054694F83D0020287E
:100F90007FD11923012240492046009501F080F8B5
:100FA000002876D194F83C00012872D0012084F802
:100FB0003C0020680168C90703D1016841F00101C4
:100FC00001602068016821F400610160212084F83B
:100FD0003D00102084F83E0000262664C4F82480DA
:100FE0006785608D20852D48E0622B464A46514634
:100FF000204600F0E1FF90B92068416980690090C7
:1010000036E02A464946204601F0FCF850B1206CF3
:10101000042804D12068016841F4007101600120B6
:10102000BDE8F88F606A216800780861606A401C3A
:101030006062618D491E6185218D491E89B22185BD
:1010400022685369DB435B070BD451B10078106110
:10105000606A401C6062608D401E6085208D401E6D
:1010600020852A464946204600F0F4FF0028CED1CC
:10107000208D0028C5D154F83D0B016841F4007162
:101080000160202004F81E09E67766770020C7E794
:10109000FFE70220C4E70000020010000000FFFF8D
:1010A00010B586B000210091019102910391006872
:1010B0000F4988421AD10F4CA06940F00800A06186
:1010C000A069694600F008000490C020009012203A
:1010D0000190032003900848FFF75AFCE06940F4B0
:1010E0000010E061E06900F40010049006B010BD4B
:1010F0000054004000100240000C0140024881688A
:10110000027811448160704754000020074810B5F0
:10111000016841F010010160032000F095F8002003
:1011200000F006F800F03EF8002010BD002002405C
:1011300000B5014687B00022192000F065F819209B
:1011400000F054F81348816941F4006181618069BD
:1011500005A900F400600690684600F01DF900F053
:101160004BF90D490D4AB0FBF1F10D48491E0260E3
:10117000416040F2E7320021C0E90321816000F0C4
:10118000CBFC10B1012007B000BD054800F02CFDDC
:10119000F9E700000010024040420F00002C01401F
:1011A000B40500200F4808B5816941F00101816153
:1011B000816901F001010091C16941F08051C16173
:1011C000C069002200F0805000900F21901E00F0B6
:1011D0001BF80548416821F0E06141F00071416071
:1011E00008BD00000010024000000140002809DB9B
:1011F00000F01F02012191404009800000F1E02031
:10120000C0F8001170470000F0B40E4B1B680C468C
:10121000C3F30223C3F10705042D00D90425191DCA
:10122000072901D2002300E0DB1E012606FA05F1A2
:10123000491E214099409E40761E16403143F0BC25
:1012400001F0B4BF0CED00E0064900F007020868A9
:101250004FF6FF03184040EA0220034A104308609B
:10126000704700000CED00E00000FA052DE9F047A2
:101270000F46050061D0434E306800F00700B842C9
:1012800009D2306820F0070038433060306800F041
:101290000700B84251D128683B4C810712D540075E
:1012A00003D5606840F4E06060602878000703D5EB
:1012B000606840F4605060606068A96820F0F000E9
:1012C000084360602878C00728D06868012810D0DB
:1012D0002168022810D0890700292EDA616821F0E0
:1012E000030101436160FFF755FC804641F28839F4
:1012F0000DE021688903EFE78901EDE7FFF74AFC7C
:10130000A0EB0801494502D90320BDE8F0876068D9
:10131000696800F00C00B0EB810FEFD1306800F08D
:101320000700B8420BD9306820F00700384330601E
:10133000306800F00700B84201D00120E5E72878C6
:10134000400705D56068E96820F4E0600843606004
:101350002878000706D56068296920F4605040EAC3
:10136000C100606000F058F86168084AC1F30311D9
:10137000515CC8400649086006480068FFF7D8FE7F
:101380000020C2E70020024000100240B4420008E2
:1013900060000020580000200F2202600C4A5368B1
:1013A00003F003034360536803F0F0038360536862
:1013B00003F4E063C36052684FF4E06303EAD202CF
:1013C00002610448006800F00700086070470000F0
:1013D00000100240002002400448054900684968A6
:1013E000044AC1F30221515CC840704760000020EC
:1013F00000100240C44200080448054900684968DA
:10140000044AC1F3C221515CC8407047600000200B
:1014100000100240C442000812A185B00FC98DE837
:101420000F0014A0144A006804905168134801F09A
:101430000C03042B10D0082B0ED1C1F38343C90336
:101440001DF803000AD5516804AAC1F34041515C5C
:101450000A4A5043B0FBF1F005B0704708494843D1
:10146000FAE7000002030405060708090A0B0C0D41
:101470000E0F1010010200000010024000127A004E
:1014800000093D002DE9F84F040070D02078C04DD0
:10149000C00749D06868C0F38100012807D0686898
:1014A000C0F38100022809D16868C00306D5286806
:1014B000800339D560680028E7D035E06068B0F572
:1014C000803F0BD010B1B0F5A02F11D0286820F4C8
:1014D00080302860286820F4802002E0286840F4EA
:1014E00080302860606890B1FFF754FB06460AE040
:1014F000286840F480202860F0E700BFFFF74AFB2F
:10150000801B642873D828688003F7D50CE0FFF7A8
:1015100041FB064605E000BFFFF73CFB801B64284B
:10152000F0D828688003F7D420789A4E80074FF0CF
:1015300001094FF0000839D5686810F00C0F07D08A
:101540006868C0F38100022809D16868C00306D426
:101550002868800714D52069012808D110E0206987
:10156000B0B1C6F80090FFF715FB074605E00AE1A9
:10157000FFF710FBC01B0228C4D828688007F7D5E6
:101580002868616920F0F80040EAC10028600DE099
:10159000C6F80080FFF7FEFA074604E0FFF7FAFA04
:1015A000C01B022823D828688007F7D420780007BA
:1015B0002CD57948A169D9B1C0F80090FFF7EAFAB3
:1015C000074604E0FFF7E6FAC01B02280FD8686A56
:1015D0008007F7D571484FF4FA510068B0FBF1F07D
:1015E000009000BF0098411E0091FAD20EE080E00A
:1015F000C0F80080FFF7CEFA074604E0FFF7CAFA0A
:10160000C01B022875D8686A8007F7D42078400785
:1016100060D5E8690027C00008D4E86940F0805030
:10162000E861E869012700F0805000905C4801689B
:10163000C90513D40168834641F480710160FFF746
:10164000A9FA824606E000BFFFF7A4FAA0EB0A0061
:1016500064284ED8DBF80000C005F5D5E068012805
:101660000AD008B1052813D0286A20F001002862AA
:10167000286A20F0040002E0286A40F00100286295
:10168000E06841F2883B98B1FFF784FA82460BE0AC
:10169000286A40F004002862EEE700BFFFF77AFAFC
:1016A000A0EB0A0159455AD8286A8007F6D50CE004
:1016B000FFF770FA824605E0FFF76CFAA0EB0A012B
:1016C00059454CD8286A8007F6D41FB1E86920F044
:1016D0008050E861E06988B36968C1F3810102293B
:1016E00044D00228C6F8608004D0FFF753FA0446BD
:1016F00038E034E0FFF74EFA074604E0FFF74AFA15
:10170000C01B02282BD828688001F7D4206AB0F5C6
:10171000803F05D16868A16820F400300843686004
:10172000D4E908010843696821F47411084368602A
:10173000C6F86090FFF72EFA044606E025E000BFE9
:10174000FFF728FA001B022809D828688001F7D57E
:101750001BE000BFFFF71EFA001B022802D903207E
:10176000BDE8F88F28688001F4D40EE00128F7D096
:101770006868226A00F48031914204D1616A00F401
:101780007010884201D00120EAE70020E8E700005D
:1017900000100240000042428004424260000020EB
:1017A0000070004070B5040009D0606A002540B1A7
:1017B00025616561A56294F8510040B10CE00120FB
:1017C00070BD6068B0F5827FF4D0E561F2E784F81F
:1017D0005050204600F040F8022084F85100206864
:1017E000016821F040010160A088218900F4827025
:1017F00001F404410843A18901F400610843217CFC
:1018000001F002010843217D01F001010843218B11
:1018100001F400710843217F01F03801084394F876
:10182000201001F080010843218D01F4005108438C
:1018300021680860A069042101EA1040216848601D
:101840002068C16921F40061C1616565012084F8E7
:101850005100002070BD000030B585B00024009418
:1018600001940294039400681449884223D11448D7
:10187000816941F480518161816901F48051049151
:10188000816941F00401816180690E4D00F004001E
:101890000490A0200090022001900320039069464C
:1018A0002846FFF775F84020CDE900046946284630
:1018B0000294FFF76DF805B030BD00000030014024
:1018C00000100240000801402DE9F84F044690F84E
:1018D000500000270A9E1D4692468B464FF0010994
:1018E00001280ED0012084F85000FFF753F98046FC
:1018F00094F85100616801280CD0B1F5827F07D1BE
:1019000002E00220BDE8F88FA16809B9042801D0DF
:101910000227C2E0BBF1000F27D0BAF1000F24D09C
:101920001DB394F85100042802D0052084F851001A
:1019300000206065C4F838A0E587A587C4F830B0FA
:10194000E586A5862064606420680168490603D4A2
:10195000016841F040010160E068B0F5006F606827
:1019600005D0E8B3012D46D07FE0012795E008B10E
:10197000012D39D1206B21680088C860206B801C44
:101980002063E08E401EE0862EE020688168890793
:101990000FD5E18E69B1B9F1010F0AD1216B098828
:1019A000C160206B801C2063E08E401EE0864FF0FB
:1019B000000920688168C9070CD0E18F51B1C06867
:1019C000A16B0880A06B801CA063E08F401EE087A5
:1019D0004FF00109FFF7DEF8A0EB0800B04200E08D
:1019E00009E001D3701C50D1E08E0028CDD1E08FEA
:1019F0000028CAD13FE0206B216800780873206B73
:101A0000401C2063E08E401EE0862EE02068816846
:101A100089070FD5E18E69B1B9F1010F0AD1216BA8
:101A200009780173206B401C2063E08E401EE08625
:101A30004FF0000920688168C9070CD0E18F51B1CF
:101A4000C068A16B0870A06B401CA063E08F401EB3
:101A5000E0874FF00109FFF79DF8A0EB0800B042C6
:101A600002D3701C01D010E07EB1E08E0028CDD1F1
:101A7000E08F0028CAD142463146204600F044FE9D
:101A800028B101272020606507E0032705E0A06852
:101A900018B92068C16880680090012084F851005E
:101AA000002084F8500038462CE77047704700004B
:101AB00070B590F83C20012A26D0012480F83C40E3
:101AC000022280F83D2003685A689D6822F0700663
:101AD0000A6832435A600D4B02689A4208D0B2F14C
:101AE000804F05D00A4B9A4202D00A4B9A4204D149
:101AF000496825F080031943916080F83D4000213A
:101B000080F83C10084670BD022070BD002C0140DA
:101B1000000400400008004010B5040003D094F811
:101B20003D0010B107E0012010BD002084F83C000A
:101B3000204600F01FF8022084F83D00211D206897
:101B400001F0B4FA012084F8460084F83E0084F8DD
:101B50003F0084F8400084F8410084F8420084F893
:101B6000430084F8440084F8450084F83D000020D8
:101B700010BD000008B50068B0F1804F08D10548DD
:101B8000C16941F00101C161C06900F0010000902C
:101B900008BD00000010024090F83D10012901D05E
:101BA00001207047022180F83D1000680B498842EF
:101BB00008D0B0F1804F05D00949884202D00949C8
:101BC000884204D1816801F00701062903D0016829
:101BD00041F001010160002070470000002C01402D
:101BE000000400400008004090F83D10012901D099
:101BF00001207047022180F83D100168CA6842F058
:101C00000102CA6000680B49884208D0B0F1804FD9
:101C100005D00949884202D00849884204D1816828
:101C200001F00701062903D0016841F001010160BC
:101C300000207047002C01400004004000080040D4
:101C400070B5044690F83C00012817D0012584F8AF
:101C50003C50022084F83D002068826822F0770220
:101C600022F47F4282600868502830D00DDC2028A2
:101C70004DD005DC98B310283BD148E0022070BD60
:101C8000302844D0402834D139E0602828D070284A
:101C900006D0B0F5805F2CD0B0F5005F29D10AE006
:101CA000CB68D1E90121206801F036FA206881680B
:101CB00041F0770109E0CB68D1E90121206801F00A
:101CC0002BFA2068816841F48041816011E0CA6884
:101CD0004968206801F032FA5021206807E016E0D8
:101CE000CA684968206801F03AFA6021206801F06A
:101CF0001DFA84F83D50002084F83C0070BDCA688D
:101D00004968206801F01AFA40212068EFE722684C
:101D100001461046EBE7704770B50446006801695C
:101D20004FF00005C943890715D4C168C943890725
:101D300011D4E91E016101202077206880698007A5
:101D4000204602D0FFF7E7FF04E000F098F82046B5
:101D500000F096F8257720680169C943490717D430
:101D6000C168C943490713D46FF00401016102201F
:101D700020772068806910F4407F204602D0FFF76A
:101D8000CAFF04E000F07BF8204600F079F82577E0
:101D900020680169C943090716D4C168C943090706
:101DA00012D46FF008010161042020772068C06917
:101DB0008007204602D0FFF7AEFF04E000F05FF896
:101DC000204600F05DF8257720680169C943C906FF
:101DD00017D4C168C943C90613D46FF0100101615B
:101DE000082020772068C06910F4407F204602D088
:101DF000FFF791FF04E000F042F8204600F040F8C1
:101E0000257720680169C943C90708D1C168C9435A
:101E1000C90704D1891E0161204600F033F820680B
:101E20000169C943090609D4C168C943090605D433
:101E30006FF0800101612046FFF737FE20680169DD
:101E4000C943490609D4C168C943490605D46FF09E
:101E500040010161204600F01FF820680169C94374
:101E600089060BD4C168C943890607D46FF02001E5
:101E700001612046BDE87040FFF718BE70BD704795
:101E80007047000000680349884201D1FFF736B966
:101E900070470000002C01407047FEE701684A6966
:101EA000D24352050FD46FF480624A61002140F89A
:101EB000301F202242738173026942F004020261E2
:101EC0000173012070470020704700002DE9F84F92
:101ED0000446C06A1E4693460D4621680A6842F4CD
:101EE00080620A60082807D0012805D010F5803FDD
:101EF00002D0206B112804D12068016841F4807160
:101F000001604FF001195B460022494620460096C9
:101F100000F0C6F84FF4007840B120680068C005B2
:101F200001D5C4F840800320BDE8F88F2069DFF8B0
:101F300084A0B0F5804F0FD00620216800EAD517A5
:101F400047F0F000086133465A460AF10601204680
:101F500000F0DAF858BB03E0E8B240F001001CE002
:101F60002168E8B2086133465A465146204600F0DF
:101F7000CBF8E0B92068416981690091016841F4BA
:101F8000807101605B46002249462046009600F0C1
:101F900087F80028C1D147F0F10021680861334675
:101FA0005A465146204600F0AFF80028BCD0012028
:101FB000BAE7000002000100F8B50446C06A1E46F8
:101FC0000D461746082807D0012805D010F5803F98
:101FD00002D0206B122804D12068016841F480717E
:101FE0000160134600224FF001112046009600F0D8
:101FF00057F840B120680068C00502D54FF4007062
:1020000020640320F8BD2069B0F5804F0ED0062073
:10201000216800EAD51040F0F000086133463A46E6
:102020000B49204600F070F878B902E005F0FE0098
:1020300000E0E8B221680861054933463A46891F45
:10204000204600F061F80028DCD00120F8BD000037
:102050000800010070B516460D4604460DE0204606
:10206000FFF71CFF08B1012070BD681C05D0FEF70A
:1020700091FD801BA84207D835B120684069C04354
:102080004007ECD4002070BD002044F8300F202120
:102090006173A073216941F0200121612073E2E79F
:1020A0002DE9F0471E4690460D460446C1F307470A
:1020B000DDF8209008E0701C06D0FEF76BFDA0EB69
:1020C0000900B0420FD876B12068012F18D080697E
:1020D00025EA00000004000C14D000214145EAD09C
:1020E0000020BDE8F087002044F8300F2021617304
:1020F000A073216941F02001216120730120F0E7E4
:102100004069E5E70121E9E72DE9F0479A46914664
:102110000E46044600254FF02008C1F3074725E08E
:1021200020684069C043400514D42068016841F428
:102130000071016021686FF480604861256384F854
:102140003D8084F83E50206C40F00400206484F808
:102150003C501FE0B9F1FF3F08D0FEF71BFDA0EB9C
:102160000A0149450CD8B9F1000F09D02068012FA8
:1021700013D0806926EA00000004000C0BD0CFE7E2
:1021800044F8305F84F80D80A573206940F020008A
:10219000206125730120BDE8F0874069EAE72DE959
:1021A000F041002590460E460446202717E040697E
:1021B000C043C0060CD454F8301B6FF010004861C7
:1021C00044F810596777A577206A2062257717E0D1
:1021D000FEF7E0FCA0EB0800B04208D83EB1206852
:1021E0004169C9434906E2D40020BDE8F08144F8C2
:1021F000305F6773A573206940F02000206125736C
:102200000120F2E770B516460D4604460DE0204663
:10221000FFF744FE08B1012070BD681C05D0FEF731
:10222000B9FC801BA84207D835B120684069C0437B
:102230000006ECD4002070BD002044F8300F2021AF
:102240006173A073216941F0200121612073E2E7ED
:1022500010B5142000F0AEF8800705D10321BDE8C9
:102260001040142000F0C8B810BD7CB5044600250D
:1022700029460D2000F056F9932020702020607030
:1022800001A823460090022219460C2000F0C0F855
:10229000010009D1225C401C5540C0B20428F9D38A
:1022A000205CA84200D0022108467CBD2DE9F04107
:1022B0000E46074615460421052000F036F8802119
:1022C0000A2000F099F8002405E0395D092000F0AB
:1022D00029F9641CE4B2B442F7D30321012000F0D1
:1022E00021F9FF24052000F065F8641E14F0FF04B6
:1022F00001D04007F6D5222000F05CF8287021209C
:1023000000F058F86870BDE8F08170B505460146E8
:10231000262000F056F8040003D12846FFF7A5FF59
:10232000044600F00EF8204670BD70B50C46054618
:1023300000F040F820EA04012846BDE8704000F0B3
:10234000F1B80EB550208DF8040000208DF805007E
:102350000DF10602022101A8FFF7A8FF02A801ABB8
:102360000090042219460C2000F052F80EBD10B562
:1023700000F03EF88D212A2000F0D4F83E212B20D9
:1023800000F0D0F81E212D2000F0CCF800212C20E8
:1023900000F0C8F87021262000F0C4F84021152074
:1023A00000F0C0F83D21112000F0BCF8BDE810405D
:1023B000FFF74EBF7E2101EA400040F0800000F0B0
:1023C00073B97CB50C46054607210D2000F0AAF82C
:1023D000257001A823460090012219460C2000F028
:1023E00017F818B9BDF80410102900D002207CBDE0
:1023F0000F21012000F096B870B50C460546FFF796
:10240000D9FF40EA04012846BDE8704000F08AB8D0
:102410002DE9FF5F00270226DDF838A015468B4620
:102420008146B8460C2805D0B9F10E0F05D1122708
:10243000102001E077273020804647F080010220FD
:1024400000F070F880210420FFF76FFF80210A2040
:10245000FFF7D2FF0021012000F064F8002406E01D
:102460001BF80410092000F05DF8641CA4B2AC4213
:10247000F6D34946012000F055F8B9F10C0F03D10D
:1024800080210D20FFF7B8FF4FF4FA650420FFF715
:1024900091FF6D1E2D0404462D0C04D0E00702D1DF
:1024A00014EA080FF2D080210D20FFF73EFF35B16E
:1024B0000620FFF77FFF10F01B0F04D0022604B0A8
:1024C0003046BDE8F09F00263C40E00700D00126E2
:1024D000B9F10C0FF3D10A20FFF76CFF04460C2072
:1024E000FFF768FF10F007004FEAC40104D0083975
:1024F0000844AAF8000001E0AAF8001024B1102C4A
:1025000004D91024002503E00124FBE7002506E0A0
:102510000920FFF74FFF039948556D1CADB2A54246
:10252000F6D3CCE77E2202EA400000F0D5B80000E6
:102530002DE9F04385B000242C48009401940294C6
:102540000394816941F010018161816901F01001FA
:102550000491816941F020018161816901F02001CC
:102560000491816941F004018161816901F00401F4
:102570000491816941F0080181618069012200F0C4
:102580000800DFF86C805503049029464046FEF7AA
:10259000FCFADFF8609041F61E07002239464846F3
:1025A000FEF7F3FA0095022601250396CDE90154C2
:1025B00069464046FEF7ECF900970396CDE90154D1
:1025C00069464846FEF7E4F94FF470408DE8310063
:1025D00069460948FEF7DCF9A8028DE83100694632
:1025E0004846FEF7D5F905B0BDE8F083001002407B
:1025F0000010014000080140000C01400C480B494C
:102600004FF4007201604FF48271416000218160DB
:10261000C1600161C0E905120822C0E907214162D9
:1026200081620A21C162FFF7BDB80000003001409D
:102630001801002010B586B00024114800940194C0
:102640000294039404944FF0804105940160372173
:10265000C0E901144FF6FE71C0E903148461FFF76D
:102660005BFA4FF48050009069460548FFF7E8FA9E
:10267000049404A902480594FFF71AFA06B010BDA5
:1026800070010020FEE770470EB501238DF80400AD
:102690000A20009002AA01A90248FFF715F99DF847
:1026A00008000EBD1801002070B50A4D0446002236
:1026B00010212846FEF769FA2046FFF7E5FF0020C3
:1026C000FFF7E2FF0446012210212846FEF75DFADB
:1026D000204670BD0008014070B50A4C0E46054604
:1026E000002210212046FEF750FA2846FFF7CCFFC3
:1026F0003046FFF7C9FF2046BDE870400122102197
:10270000FEF743BA0008014038B50B460092044674
:102710000022802100F008F8002804D0606D40F00D
:1027200020006065032038BD2DE9F8431E46914620
:1027300088460446089DFEF72DFA401B351AFEF721
:1027400029FA074625480068C0F3CB30684338E0D3
:10275000701C37D0FEF71EFAC01BA84203D215B179
:10276000009860B32CE02068416821F0E0014160EE
:102770006068B0F5827F0BD1A068B0F5004F02D041
:10278000B0F5806F04D12068016821F0400101603C
:10279000A06AB0F5005F09D12068016821F40051FA
:1027A00001602068016841F400510160012084F853
:1027B0005100002084F850000320BDE8F883002574
:1027C000401E00902068816838EA010004D0002192
:1027D0004945BDD10020F0E70121F9E76000002064
:1027E0001FB5002200910192029203926946FEF702
:1027F000CFF81FBD1FB5002200910121CDE90112C4
:10280000032103916946FEF7C3F81FBD0EB500F022
:102810001DFFFD4CFD4804F14A09217D89F8051092
:10282000217E89F80610217F89F8071094F820107E
:1028300089F8041094F8241089F80210218DA9F861
:10284000001094F82C1089F80310D4F84A10D4F82A
:102850004E20FDF7D9FE00F04BFFFFF788FD00F09A
:1028600039FF1420FEF76EF84FF4004A0027E84DB8
:10287000DFF8A0B3FDF790FDFDF73EFD20700128C5
:1028800012D1FDF75BFD6070FDF758FDA070FDF7FC
:1028900055FDE070FDF752FD2071FDF74FFDE08022
:1028A000E07860816078208140F24C40FEF74AF881
:1028B000237923716289E26020892061D348D6A1FF
:1028C000683000F05FFCD148D8A17C30226900F06C
:1028D00059FC0021084600F000FFCC48683000F0A9
:1028E00075FF0B21002000F0F8FEC8487C3000F096
:1028F0006DFF0F21002000F0F0FE252000F046FFC4
:102900004FF480615846FEF733F900287ED100F07D
:10291000E1FE3220FEF716F80021012000F0DDFE76
:10292000C4A000F053FF4FF47A70FEF70BF800F0EC
:10293000D1FE4FF4FA70FEF705F856464FF4805872
:1029400062E0C1A1C248626900F01CFCC048BEA19F
:102950000A30A26900F016FC0021012000F0BDFE43
:10296000BCA000F033FF0221002000F0B6FEBCA0A6
:1029700000F02CFF0621002000F0AFFEB9A000F00F
:1029800025FF0021084600F0A8FEB14800F01EFF18
:102990000421002000F0A1FEAD480A3000F016FF2F
:1029A0004FF49670FDF7CEFF31462846FEF7E0F86B
:1029B00088B96069401C6061172807DD012100208B
:1029C000676100F08AFE98A000F000FFA6A1A04871
:1029D000626900F0D7FB4FF480412846FEF7C8F843
:1029E00090B9A069401CA0613C2807DD05210020AA
:1029F000A76100F072FE8CA000F0E8FE94489AA156
:102A00000A30A26900F0BEFB414600E023E0284600
:102A1000FEF7AEF8002894D1217D89F80510217EBB
:102A200089F80610217F89F8071094F8201089F89A
:102A3000041094F8241089F80210218DA9F80010D0
:102A400094F82C1089F80310D4F84A10D4F84E20CA
:102A50006E48FDF7D9FD51462846FEF789F8002853
:102A600045D100F037FE1420FDF76CFF0021084629
:102A700000F033FE7EA000F0A9FE4FF4805830E055
:102A800061484430FFF741FC58BB5F487CA14430AB
:102A900082780679C3788DE84C00437802786C48D8
:102AA000783800F06FFB00F015FE1420FDF74AFFA8
:102AB0000321002000F011FE6548783800F086FE02
:102AC0004FF47A70FDF73EFF6148734A73497838D6
:102AD000FDF7C4FE0021012000F0FFFD70A000F012
:102AE00075FE41462846FEF743F80028C8D14648FF
:102AF0004430FFF70AFC50BB4348443081780379E7
:102B0000C2788DE80E004378027851485CA178388D
:102B100000F038FB3D48604A6049A430FDF7C6FE2E
:102B20003A49A43101F16400FDF785FB90B300F050
:102B3000D1FD1420FDF706FF0021084600F0CDFD71
:102B400059A000F043FE4FF47A70FDF7FBFEA16B35
:102B5000E068884203DAE16B2069884203DB0421E4
:102B60005846FEF70AF8A16BE068884208DAE16B84
:102B70002069884204DA002204215846FEF705F84D
:102B800099F805004E46052802D9123805283AD88A
:102B90000122D2E1FFE700F09DFD1420FDF7D2FEF7
:102BA0000021084600F099FD43A000F00FFE4FF40D
:102BB0009670FDF7C7FE0021084600F08EFD40A08C
:102BC00000F004FE4FF47A70FDF7BCFED0464FF4DF
:102BD0008056A9E141462846FDF7CAFF00287FD16B
:102BE00000F078FD3220FDF7ADFE0021012000F05D
:102BF00074FD36A000F0EAFD4FF47A70FDF7A2FEF6
:102C000000F068FD6DE097E100000020B8010020B1
:102C1000000C014000080140543A25302E32642E49
:102C200025302E326427432020000000483A25300A
:102C30002E31640043616920646174206E6761799C
:102C40002067696F0000000025302E31640000000D
:102C50003803002054696D652069733A2000000034
:102C6000682000006D20000025302E326400000036
:102C700048617920717565742074686500000000F2
:102C800025303258253032582530325825303258C8
:102C9000253032580000000010F8010800FC01083F
:102CA00053617665640000004B686F6E6720686F43
:102CB00070206C6500000000486F70206C6500009B
:102CC0005365742D75703A4F4E00000043616920C2
:102CD000646174206E6869657420646F2000000070
:102CE0003DE04FF4FA70FDF72DFE32E0AFF2A8019F
:102CF000AC48A26B00F046FA0021084600F0EDFC5B
:102D0000A9A000F063FD0D21002000F0E6FCA5481D
:102D100000F05CFD4FF49670FDF714FE4146284626
:102D2000FDF726FF38B9A26B521CAFF2C4019D48D3
:102D3000A26300F027FA4FF480412846FDF718FF00
:102D400038B9A26B521EAFF2E0019648A26300F0C0
:102D500019FA31462846FDF70BFF0028C6D14FF47B
:102D600080412846FDF704FF002853D100F0B2FC53
:102D70003220FDF7E7FD0021012000F0AEFC8FA01E
:102D800000F024FD4FF47A70FDF7DCFD00F0A2FCAA
:102D90004FF49670FDF7D6FD36E0AFF2541181483E
:102DA000E26B0A3000F0EEF90021084600F095FCD5
:102DB00086A000F00BFD0C21002000F08EFC79486D
:102DC0000A3000F003FD4FF49670FDF7BBFD41465D
:102DD0002846FDF7CDFE40B9E26B521CAFF27811E8
:102DE0007048E2630A3000F0CDF94FF48041284684
:102DF000FDF7BEFE40B9E26B521EAFF29411694876
:102E0000E2630A3000F0BEF931462846FDF7B0FE15
:102E10000028C2D14FF400512846FDF7A9FE002832
:102E20007DD100F057FC3220FDF78CFD0021012000
:102E300000F053FC6AA000F0C9FC4FF47A70FDF773
:102E400081FD00F047FC4FF4FA70FDF77BFD63E075
:102E5000AFF20C215348626B1E3800F093F9AFF2C9
:102E600018215048226B283800F08CF900210120ED
:102E700000F033FCAFF2242000F0A8FC002108464B
:102E800000F02BFC5BA000F0A1FC0921002000F069
:102E900024FC5BA000F09AFC0321002000F01DFC44
:102EA00040481E3800F092FC0D21002000F015FC77
:102EB0003C48283800F08AFC4FF49670FDF742FD3C
:102EC00041462846FDF754FE98B9606B401C60638C
:102ED000172807DD01210020676300F0FEFB47A0F3
:102EE00000F074FCAFF280212E48626B1E3800F0B7
:102EF00049F94FF480412846FDF73AFE60B9206B4E
:102F0000401C2063172800DD2763AFF2A421254869
:102F1000226B283800F036F93146284600E003E0FD
:102F2000FDF726FE002893D131462846FDF720FE06
:102F300000287FF44FAE0AE6002202215846FDF732
:102F400024FE7079616B884204D101220821584621
:102F5000FDF71BFE7079216B884204D10022082105
:102F60005846FDF712FE29496846FDF78CFA00988D
:102F7000C4F84A000198C4F84E00F0790090234844
:102F8000B379727922A1903000F0FCF80021012081
:102F900000F0A3FB1D48903000F018FC012000F069
:102FA0005DFC67E44C0300204E6869657420646F23
:102FB000206C613A2020202000000000436169203D
:102FC00064617420646F20616D200000446F206193
:102FD0006D206C613A20202020202020000000007D
:102FE00043616920646174206175746F206C65644D
:102FF000000000004F4E3A202068202020000000F2
:103000004F46463A2020682000000000B80100200A
:1030100025302E32643A25302E32643A25302E3255
:103020006420000010B5502080F31188BFF34F8F4B
:10303000BFF36F8F01F06AF818B104494FF0805068
:103040000860002080F3118810BD000004ED00E04E
:1030500030B58FB028216846FDF7DBF814210AA8A7
:10306000FDF7D7F801210804CDE9001000240294EF
:1030700002250491CDE907504FF4A010099068464D
:10308000FEF700FA0F20CDE90A056802CDE90C40F1
:1030900002210AA80E94FEF7E9F80FB030BD704780
:1030A0000148FEF739BE0000B4050020F0B5026803
:1030B000164B174C174D4FF08047984205D0B84239
:1030C00003D0A04201D0A84203D122F070064A6882
:1030D0003243984205D0B84203D0A04201D0A84262
:1030E00003D122F44074CA6822434C6922F0800262
:1030F000224302608A68C2620A688262984201D1F1
:103100000969016301214161F0BD0000002C01400B
:10311000000400400008004010B5846842EA032221
:1031200024F47F440A432243826010BD826822F067
:1031300070020A4342F007018160704710B5036ACC
:10314000046A24F001040462846924F0F00444EA6F
:10315000021423F00A020A438461026210BD10B512
:10316000036A23F0100303628369046A23F4704343
:1031700043EA023224F0A00343EA011182610162B2
:1031800010BDFEE70FB4084B10B504A902AA0398BE
:1031900000F02CF8044602A9002000F052FA204664
:1031A00010BC5DF814FB0000433600080907090E47
:1031B000002804DB00F1E02080F80014704700F0E4
:1031C0000F0000F1E02080F8141D704702E008C8ED
:1031D000121F08C1002AFAD170477047002001E091
:1031E00001C1121F002AFBD1704700002DE9FF4FDB
:1031F0008DB00F460546002606E025280BD0DDE9F8
:103200000F1290476D1C761C28780028F5D111B05C
:103210003046BDE8F08F0024A246A1460122E949CC
:1032200000E0044315F8013F203B02FA03F0084296
:10323000F7D128782A2810D06FF02F022878A0F133
:103240003001092914D80AEB8A0102EB410144F04C
:10325000020400EB010A6D1CF0E701CF5FEA000AEF
:1032600003D544F40054CAF1000A44F002046D1C72
:1032700028782E2817D115F8010F44F004042A28C5
:103280000ED06FF02F022878A0F1300109290AD85A
:1032900009EB890102EB410100EB01096D1CF2E72A
:1032A00057F8049B6D1C28786C280FD006DC4C283E
:1032B00017D068280DD06A2814D104E0742810D0E3
:1032C0007A280FD10DE044F400140AE044F480148D
:1032D00001E044F440146978814202D104F580147D
:1032E0006D1C6D1C28786E281ED00CDC632830D035
:1032F00004DC00288BD0582811D19FE0642867D0C7
:1033000069280CD164E073282DD004DC6F2872D0BA
:10331000702804D194E075286ED078286DD0DDE94E
:103320000F129047761C4BE1C4F30250022806D0DE
:10333000032809D0042801CF09D0066040E101CF5D
:10334000F117C0E900613BE101CF068038E106706A
:1033500036E117F8040B8DF8000000208DF801000D
:10336000EB46012003E057F804BB4FF0FF30610744
:103370004FF0000102D40DE008F1010188464945F3
:103380000FDA8045F8DB1BF808100029F4D108E0BB
:1033900008F1010188468142FADB1BF80810002978
:1033A000F6D1DDE90F23AAEB08008146214600F0A3
:1033B00031F9304400EB080604E0DDE90F121BF898
:1033C000010B9047B8F10108F7D221464846F2E0D8
:1033D0000A21C4F302524FF0000B0891022A04D0D4
:1033E00001CFC117032A09D00AE0FF1D27F0070704
:1033F000F7E8020108E02CE01EE01FE000B2C11770
:10340000042A01D140B2C117021E71F1000206DA8E
:103410000023D0EB030063EB01012D2202E0220523
:1034200004D52B228DF82420012203E0E20701D0ED
:103430002022F7E7904653E00A210BE0102109E033
:1034400010214FF0000B44F004044FF008090891DC
:1034500003E008214FF0000B0891C4F30252022A46
:1034600004D001CF0021032A06D006E0FF1D27F07B
:103470000707F7E8020103E080B2042A00D1C0B2D6
:103480004FF0000822072BD52A78702A07D0DDF8E4
:1034900020C08CF0100C5CEA0B0C05D00EE0402232
:1034A0008DF82420012208E050EA010306D03023E1
:1034B0008DF824308DF8252002229046089B83F059
:1034C000080353EA0B030BD150EA010201D1620752
:1034D00006D530228DF824204FF00108A9F101090A
:1034E0002A78582A04D038A20B9208AA0A920BE034
:1034F0003AA2F9E75B46089AFCF7ABFE0B9B9B5C94
:103500000A9A521E0A92137050EA0102F2D10A98E6
:10351000ADEB000000F1200B600702D524F48034ED
:1035200001E04FF00109D94502DDA9EB0B0000E0F5
:10353000002000EB0B0141440890AAEB010AE003D4
:1035400006D4DDE90F232146504600F063F8064417
:103550004FF0000908E009A911F80900DDE90F1290
:10356000904709F10109761CC145F4DBE0030CD555
:10357000DDE90F232146504600F04CF8064404E0F4
:10358000DDE90F1230209047761C0899481E0890FC
:103590000029F5DC08E00A980A990078491C0A918C
:1035A000DDE90F129047761CBBF10001ABF1010B76
:1035B000F1DC21465046DDE90F2300F019F80644FE
:1035C0006D1C21E60928010030313233343536379D
:1035D000383961626364656600000000303132335F
:1035E00034353637383941424344454600000000FF
:1035F0002DE9F041044600251E461746880404D4F0
:1036000005E039462020B0476D1C641EF9D52846D8
:10361000BDE8F0812DE9F041044600251E469046A4
:10362000C80301D5302700E02027880404D505E031
:1036300041463846B0476D1C641EF9D52846BDE8A2
:10364000F0810A68531C0B6010707047114910B567
:10365000A1F114000160D02101710F4981600F496F
:10366000C1604FF47A710161FCF798FF80B9094895
:103670001438FCF7BBFE58B906481438FCF7EFFEC7
:1036800030B9044800211438FCF7A6FF002800D008
:10369000022010BDCC010020A08601000054004093
:1036A000044900220B685A6209684A6A8242FCD3C4
:1036B000704700007001002010B50446FCF7B4FD0F
:1036C0000021C0B20A4602E06254491CC9B28142DC
:1036D000FAD310BD012000F039B8012805D04031DF
:1036E000C8B240F0800000F031B88031C8B2FAE7CB
:1036F00010B5332000F02AF8322000F027F83220ED
:10370000FDF720F9282000F021F83220FDF71AF902
:10371000012000F01BF83220FDF714F9062000F01C
:1037200015F83220FDF70EF90C2000F00FF83220CA
:10373000FDF708F9022000F009F83220FDF702F940
:10374000BDE81040802000F001B800001CB500F07A
:10375000F00141F00C028DF8042041F00801000155
:103760008DF8051040F00C018DF8061040F00800AF
:103770008DF8070064200090042301AA4E2102481E
:10378000FDF7F8FB1CBD0000C40000201CB500F0D4
:10379000F00141F00D028DF8042041F00901000113
:1037A0008DF8051040F00D018DF8061040F009006D
:1037B0008DF8070064200090042301AA4E210248DE
:1037C000FDF7D8FB1CBD0000C400002010B5044666
:1037D00002E0641CFFF7DAFF20780028F9D110BD61
:1037E00088B0FDF793FCFFF733FCFEF7A1FE144809
:1037F00012494FF48042016012494160002181600A
:10380000C0E9031241618161C1610162FDF7CCF938
:10381000FEF7F4FEFEF70EFF0948AC30FEF7BCF9E8
:103820001C2209496846FCF7DBFC0021684600F0D1
:1038300021F80649086400F018F8FEE7005400403B
:10384000C4000020A086010098420008000000206B
:1038500001460020842900D0C81C704710B500B96B
:10386000012000F015FB002010BD10B500F036FB64
:10387000002010BD7FB50D4604464169B0F908002F
:1038800081B1A16971B1FFF7E3FFD4E905128DE8B9
:103890000700D4E900102B46226900F00CFC0390CD
:1038A00004B070BDFFF7D4FF03A9CDE90001208A61
:1038B0002B4682B2D4E9001000F0D0FB012801D0E1
:1038C0000020EDE70398EBE72DE9F041184C0F4697
:1038D000054666692068001D00F016FA38B92068B0
:1038E00090F82C1001208840A1698143A161681CD7
:1038F00007D137B12168BDE8F0410E48091D00F03D
:1039000047BA20683544B5424560216805D2A068B1
:10391000BDE8F041091D00F023BA6068091D00F000
:103920001FFA206B854200D22563BDE8F0810000BC
:1039300064000020D80600202DE9F041054600F083
:1039400033FA2E4C2069401C206120682C4F10B1A6
:10395000E06940B32DE025602069012829D10026C7
:1039600006EB860007EB800000F0ECF9761C072ED2
:10397000F6D323488C3000F0E5F92148A03000F060
:10398000E1F91F48B43000F0DDF91D48C83000F0FF
:10399000D9F91B48DC3000F0D5F919488C3060604B
:1039A0001430A06005E02068E96AC06A884200D847
:1039B0002560E06A401CE062E96A0120A269884053
:1039C0001043A06101EB810007EB8000291D00F08E
:1039D000DFF900F009FAE06900280CD02068E96AF4
:1039E000C06A884207D207494FF080500860BFF391
:1039F0004F8FBFF36F8FBDE8F0810000640000209F
:103A0000FC05002004ED00E010B5044690F85100DC
:103A100058B101280CD002280FD0502080F3118813
:103A2000BFF34F8FBFF36F8FFEE7206B00F0F0F90D
:103A30002046BDE8104000F0EBB910BD10484FF42F
:103A40004061420706D0C01D0D4920F00700411A11
:103A5000C1F540610B4A00230144C2E90003083963
:103A6000103A21F0070111604B600B600B1AC0E99E
:103A7000001393604FF000405360D0607047000027
:103A8000EC060020B0000020144E154CA6F1C8072B
:103A90004FF08058DFF84C9012E000BF00F084F93E
:103AA000F068C568281D00F02FF92069401E2061CC
:103AB000E068401EE06000F097F92846FFF7A4FF99
:103AC000E0680028EAD138680128F9D9C9F80080EF
:103AD000BFF34F8FBFF36F8FF2E70000C4060020E3
:103AE0006400002004ED00E02DE9F0479A46DDE98E
:103AF000098481466FF00303206B03EB82021044BC
:103B0000089D20F00706700707D0502080F3118829
:103B1000BFF34F8FBFF36F8FFEE723180A5C83F864
:103B200034200A5C12B1401C1028F6D3002784F818
:103B30004370072D00D30625E562C4E91157201D07
:103B400000F00BF904F1180000F007F92461C5F149
:103B500007006462A061E76484F8507052464946E9
:103B6000304600F0BFF82060B8F1000F01D0C8F86F
:103B70000040BDE8F087000030B5114900E0114673
:103B80000A688242FBD34B685C18844203D14068C8
:103B900018444860084643681C18944209D1084CF0
:103BA000103C2468A24209D052681A4442600A6854
:103BB00012680260814200D0086030BD0460F9E7FD
:103BC000B000002006484168096829B14168C96809
:103BD000C9684968016370474FF0FF31FAE7000098
:103BE0006400002008484068401C4FF0500080F3FB
:103BF000118804D0BFF34F8FBFF36F8FFEE7BFF381
:103C00004F8FBFF36F8FFEE7B80000202DE9F04122
:103C10000546002700F098F9314E306808B9FFF7E3
:103C20000DFFF06805424BD1C5B3083568070ED0CB
:103C300005F00700C0F108000544680707D05020D0
:103C400080F31188BFF34F8FBFF36F8FFEE72DB363
:103C50007068854234D82248103001460C6801E073
:103C600020460C466168A94202D221680029F7D19A
:103C700031688C4224D00768216801606068083789
:103C8000411B10290FD96019420708D0502080F33A
:103C90001188BFF34F8FBFF36F8FFEE710E04160D5
:103CA0006560FFF769FF61687068401A7060B2680C
:103CB000904200D2B060F06801430020C4E90001E6
:103CC00000F088FA780707D0502080F31188BFF3FE
:103CD0004F8FBFF36F8FFEE73846BDE8F0810000DD
:103CE000A000002010B5031F4FF080741C601B1F44
:103CF00021F001011960191F024B0B601439403883
:103D00000A6010BDE53B0008D0E9013201699A6004
:103D1000D0E901235A604A68824201D182684A6030
:103D2000002202610868401E0860086870470000B1
:103D3000034B036003F1540008608020106070475B
:103D40006003002000F108014FF0FF32C0E90112CA
:103D5000C16001610021016070470021016170476D
:103D600030B50B685A1C02D000F1080202E002696B
:103D700004E02246546825689D42FAD953684B6096
:103D800099608A60516008610168491C016030BD1A
:103D900042684A6093688B609368596091600861DB
:103DA0000168491C01607047502080F31188BFF3FF
:103DB0004F8FBFF36F8F0A494868401C4860012845
:103DC0000CD10848006810F0FF0F07D0502080F396
:103DD0001188BFF34F8FBFF36F8FFEE7704700006E
:103DE000B800002004ED00E00849486828B1401EF2
:103DF000486001D180F311887047502080F311880A
:103E0000BFF34F8FBFF36F8FFEE70000B8000020B5
:103E100070B5002827D0144DA0F108046168E86847
:103E2000014207D1502080F31188BFF34F8FBFF3B9
:103E30006F8FFEE722683AB1502080F31188BFF3FC
:103E40004F8FBFF36F8FFEE78143616000F07CF816
:103E500060686968084468602046FFF78DFEBDE829
:103E6000704000F0B7B970BDA00000204FF0E02016
:103E700000210161816105494FF47A720968B1FB43
:103E8000F2F1491E41610721016170476000002085
:103E900010B5020014D00F48806B38B1502080F369
:103EA0001188BFF34F8FBFF36F8FFEE700F04CF820
:103EB00000211046FFF708FD00F08CF9002807D11B
:103EC00005494FF080500860BFF34F8FBFF36F8FED
:103ED00010BD00006400002004ED00E010B586B0C5
:103EE0000024039405AA04A903A80494FFF720FF63
:103EF000DDE903010094CDE9011000230EA1104873
:103F0000059A00F0D8F80F490028486311D05020D6
:103F100080F31188BFF34F8FBFF36F8F4FF0FF30E7
:103F200008630120C8614C6106B0BDE8104000F094
:103F300041B806B010BD000049444C4500000000E7
:103F4000893A0008640000200248816B491C8163A3
:103F500070470000640000201448816B11B10121FA
:103F600041627047002141628169B1FA81F1C1F17A
:103F70001F0101EB81020E4951F822306BB101EBB8
:103F8000820101F108034A6852684A609A4201D1ED
:103F900052684A60D16801607047502080F31188F0
:103FA000BFF34F8FBFF36F8FFEE700006400002068
:103FB000FC0500201CB5264908780190FF200870F8
:103FC00008788DF800009DF800009DF8002000F0B2
:103FD000F000904207D0502080F31188BFF34F8F3C
:103FE000BFF36F8FFEE79DF800001A4B00F0500002
:103FF00018700720986005E09DF8002052008DF8A9
:104000000020401E9DF800201206F5D49860032879
:1040100007D0502080F31188BFF34F8FBFF36F8F0D
:10402000FEE74FF440709860019808700A480168F4
:1040300041F470010160016841F070410160FFF7D7
:1040400015FF00205860FCF76FF800201CBD000031
:1040500000E400E0B800002020ED00E02DE9FF5F63
:104060008346DDE90E87994616468A469000FFF79B
:10407000CDFD05001CD05420FFF7C8FD040014D06E
:104080000020256384F85100CDE90240CDE9008786
:104090004B46324651465846FFF726FD2046FFF76D
:1040A0004BFC012004B0BDE8F09F2846FFF7B0FEAE
:1040B0004FF0FF30F6E7F0B585B0DDE90B640A9DFF
:1040C000A6B1DCB1542700972663022684F851601C
:1040D000002604AFCDE90246CDE90057FFF704FD05
:1040E0002046FFF729FC049805B0F0BD502080F36E
:1040F0001188BFF34F8FBFF36F8FFEE7502080F31F
:104100001188BFF34F8FBFF36F8FFEE72DE9F041AA
:104110002E4C0027A06B40B1206A401C2062606AD0
:1041200000B101273846BDE8F0816669761C6661FA
:1041300013D16068006838B1502080F31188BFF354
:104140004F8FBFF36F8FFEE76068A1686160A0606A
:10415000A06A401CA062FFF735FD206BDFF870807D
:10416000864209D36068006880B16068C068C5682D
:10417000686886420DD220632068C06A00EB800127
:1041800058F821000128CAD90127C8E74FF0FF30AD
:10419000F1E7281DFFF7B8FDA86A18B105F118006E
:1041A000FFF7B2FDE86A0121A26981401143A161D4
:1041B00000EB800108EB8100291DFFF7E9FDE86AAB
:1041C0002168C96A8842CDD30127CBE7640000206B
:1041D000FC0500202DE9F0472C4D00242746A86B54
:1041E00038B1FFF7E1FDA86B401EA863A86B40B192
:1041F00046E0502080F31188BFF34F8FBFF36F8FDD
:10420000FEE72969224E0120D1B3A6F1B409804608
:104210003068E8B1F068C46804F11800FFF774FD75
:10422000201DFFF771FDE06AAA6908FA00F1114349
:10423000A96100EB800109EB8100211DFFF7A8FDBA
:10424000E06A2968C96A8842E2D3C5F82480DFE7BA
:104250000CB1FFF7B7FC2C6A44B14646FFF756FF96
:1042600000B16E62641EF9D100202862686A38B11C
:104270000849012738070860BFF34F8FBFF36F8FDE
:10428000FFF7B2FD3846BDE8F0870000640000206B
:10429000B006002004ED00E0CC4200080D28000824
:1042A000000000000000000000020000000000000C
:1042B00000000000000000000000000001020304F4
:1042C0000607080900000000010203046465666136
:1042D000756C745461736B00F84200080000002094
:1042E000C4000000CC310008BC430008C40000201A
:1042F0002C160000DC310008000000000000000067
:1043000000000000000000000000000000000000AD
:10431000000000000000000000000000000000009D
:104320000000000000000000060000001200000075
:10433000280000004600000000000000000000000F
:10434000000000000000000000000000010000006C
:1043500010000000000000000024F4000000000035
:10436000000000000000000000000000000000004D
:10437000000000000000000000000000000000003D
:10438000000000000000000000000000000000002D
:10439000000000000000000000000000000000001D
:1043A000000000000000000000000000000000000D
:0C43B00000000000AAAAAAAA0000000059
:04000005080000ED02
:00000001FF
