:020000040800F2
:100000002805002005010008931700088311000847
:10001000911700081F0200083B19000800000000AB
:10002000000000000000000000000000F1180008BF
:10003000210200080000000095170008F3180008CE
:100040001F0100081F0100081F0100081F01000810
:100050001F0100081F0100081F0100081F01000800
:100060001F0100081F0100081F0100081F010008F0
:100070001F0100081F0100081F0100081F010008E0
:100080001F0100081F0100081F0100081F010008D0
:100090001F0100081F0100081F0100081F010008C0
:1000A0001F0100081F0100081F0100081F010008B0
:1000B0001F0100081F0100081F0100081F010008A0
:1000C0001F0100081F0100081F0100081F01000890
:1000D0001F0100081F0100081F0100081F01000880
:1000E0001F0100081F0100081F010008DFF810D0E1
:1000F00000F074F800480047111F0008AFF30080BB
:10010000280500200648804706480047FEE7FEE72E
:10011000FEE7FEE7FEE7FEE7FEE7FEE7FEE7FEE7B7
:1001200039190008ED000008202A04DB203A21FAE2
:1001300002F00021704721FA02F3D040C2F1200200
:100140009140084319467047D2B201E000F8012BF4
:10015000491EFBD270470022F6E710B513460A4647
:1001600004461946FFF7F0FF204610BD421C10F868
:10017000011B0029FBD1801A70472DE9F05F05466D
:10018000002092469B4688460646814640241BE056
:100190002846414647462246FFF7C6FF53465A4681
:1001A000C01A914110D311461846224600F028F893
:1001B0002D1A67EB01084F4622460120002100F06E
:1001C0001FF817EB00094E41201EA4F10104DFDCEB
:1001D000484631462A464346BDE8F09F064C074D47
:1001E00006E0E06840F0010394E807009847103407
:1001F000AC42F6D3FFF77EFF3C2000085C200008ED
:10020000202A04DB203A00FA02F1002070479140D6
:10021000C2F1200320FA03F3194390407047FEE730
:10022000704700000C49CA68D207FCD10A6942F045
:1002300002020A614861086940F040000861C8682C
:10024000C007FCD1086920F001000861086920F0AE
:100250000200086170470000002002407CB515468E
:100260000E46044600F060F83046FFF7DBFF2146FB
:10027000304600F01BF8642000F044F800200090A5
:100280000190084808A10278684601F057FB00F089
:100290004BF82846FFF7C6FF6946284600F006F8E7
:1002A0007CBD0000050000202564000070B50D46EF
:1002B000064600F039F8114C206940F00100206139
:1002C0002846FFF753FF0E49C0B20022087006E02F
:1002D000E168C907FCD1A95C26F81210521C8242C1
:1002E000F6DBE068C007FCD1206920F00100206146
:1002F000206940F08000206170BD000000200240B5
:100300000500002070B5044600F020F90546601C89
:1003100002D004480078044400F018F9401BA042C1
:10032000FAD370BD08000020064900200A691206B1
:1003300007D5054A4A60054A4A600969090600D599
:10034000012070470020024023016745AB89EFCDB3
:100350002DE9F84FDFF8B891002409F1040A0AF1F9
:10036000040B23460F270BF1040EC9E00125A5401D
:100370002A40AA427DD1674ED1F804C0ACEB0608F2
:10038000B44532D014DCBCF1030F3AD009DCBCF127
:10039000000F2AD0BCF1010F1CD0BCF1020F31D1EB
:1003A0001DE0BCF1110F17D0BCF1120F2AD119E0DA
:1003B000B8F5881F19D006DCB8F5803F15D0B8F520
:1003C000801F1FD111E0B8F5001F0ED0B8F5041F33
:1003D00018D10AE0CB6815E0CB681B1D12E0CB6892
:1003E00008330FE0CB680C330CE08B682BB1012B8A
:1003F0004FF0080303D0456104E0042302E00561E7
:1004000000E00023FF2A01D8064601E000F10406BF
:100410004FEA840501D9A5F12005D6F8008007FA36
:1004200005FC28EA0C0803FA05F548EA0508C6F8B1
:1004300000804D68ED0062D5374DAE6946F001068B
:10044000AE61AD6924F0030605F001050095334D5A
:1004500006EB050CDCF80850A607360F07FA06F87D
:1004600025EA0805DFF8B880404503D14FF00008C1
:1004700017E044E0DFF8AC80404502D14FF00108BE
:100480000FE0DFF8A480404502D14FF0020808E0F9
:10049000DFF89880404502D14FF0030801E04FF0AB
:1004A000040808FA06F848EA0508CCF808804D6800
:1004B000D9F80060ED034D4601D5164300E09643A0
:1004C0002E604D68DAF80060AD03554601D516433D
:1004D00000E096432E604D68DBF80060ED025D465B
:1004E00001D5164300E096432E604D68DEF80060AB
:1004F000AD02754601D5164300E096432E60641C9C
:100500000D682A46E5407FF431AFBDE8F88F000062
:1005100000040140000011100010024000000140E2
:1005200000080140000C014000100140001401408F
:10053000C26821EA02030A4043EA024101617047AE
:100540000AB1016170470904FBE7000001488068B7
:10055000704700000800002070B5040025D094F812
:100560003D00002520B984F83C50204600F04EF9AB
:10057000242084F83D002068016821F00101016019
:100580002068016841F4004101602068016821F49D
:100590000041016000F088FA4D4A6168914201D83B
:1005A0004C4900E04C49884201D2012070BD4B49C2
:1005B0002368B0FBF1F15E6826F03F060E435E60F3
:1005C0006368934206D94FF4967359434FF47A7394
:1005D000B1FBF3F12368491C1E6A26F03F06314344
:1005E00019626168914210D84900401EB0FBF1F2D7
:1005F000521CC2F30B02042A01D2042022E0B0FBF9
:10060000F1F0401CC0F30B001CE0A268F2B301EB58
:10061000C10303EB0116431EB3FBF6F35B1C43F46B
:1006200080431B0549D092B301EBC10202EB0111DB
:10063000401EB0FBF1F0401CC0F30B0040F48040C2
:1006400040F400402168CA694CF6FF739A43104396
:10065000C861D4E9071001432068026822F0C00293
:1006600011430160D4E9030101432068826848F224
:10067000FF339A4311438160D4E90501084321689F
:10068000CA6822F0FF021043C86001E00EE016E0E5
:100690002068016841F0010101602564202084F890
:1006A0003D00256384F83E50002070BD01EB4106FB
:1006B000431EB3FBF6F35B1CB3E70120C2E701EB7B
:1006C0004101401EB0FBF1F0401CC0F30B00B7E746
:1006D000A086010080841E0000093D0040420F00FA
:1006E0002DE9F84F1F4690468A460446DDF82890CB
:1006F000FFF72CFF054694F83D0020287FD11923F1
:10070000012240492046009500F0C8FD002876D11E
:1007100094F83C00012872D0012084F83C00206845
:100720000168C90703D1016841F001010160206837
:10073000016821F400610160212084F83D0010204F
:1007400084F83E0000262664C4F824806785608D06
:1007500020852D48E0622B464A465146204600F04F
:1007600029FD90B9206841698069009036E02A46E9
:100770004946204600F011FE50B1206C042804D1F7
:100780002068016841F4007101600120BDE8F88F24
:10079000606A216800780861606A401C6062618D4F
:1007A000491E6185218D491E89B2218522685369C0
:1007B000DB435B070BD451B100781061606A401CC9
:1007C0006062608D401E6085208D401E20852A4617
:1007D0004946204600F03CFD0028CED1208D00285F
:1007E000C5D154F83D0B016841F40071016020202F
:1007F00004F81E09E67766770020C7E7FFE70220C6
:10080000C4E70000020010000000FFFF10B586B032
:100810000021009101910291039100680F498842E3
:100820001AD10F4CA06940F00800A061A069694688
:1008300000F008000490C0200090122001900320D6
:1008400003900848FFF784FDE06940F40010E06180
:10085000E06900F40010049006B010BD00540040A0
:1008600000100240000C01400248816802781144E7
:100870008160704708000020074810B5016841F00A
:1008800010010160032000F067F8002000F006F876
:1008900000F024F8002010BD0020024070B50D4D7E
:1008A00004464FF47A712878B1FBF0F00A490968E0
:1008B000B1FBF0F000F051FC48B9102C07D2002237
:1008C0002146501E00F028F800206C6070BD012009
:1008D00070BD000008000020140000200C4808B57E
:1008E000816941F001018161816901F0010100919B
:1008F000C16941F08051C161C06900F08050009031
:100900000448416821F0E06141F00071416008BD98
:100910000010024000000140F0B40E4B1B680C4672
:10092000C3F30223C3F10705042D00D90425191DC3
:10093000072901D2002300E0DB1E012606FA05F19B
:10094000491E214099409E40761E16403143F0BC1E
:1009500001F008B80CED00E0064900F00702086855
:100960004FF6FF03184040EA0220034A1043086094
:10097000704700000CED00E00000FA052DE9F0479B
:100980000F46050061D0434E306800F00700B842C2
:1009900009D2306820F0070038433060306800F03A
:1009A0000700B84251D128683B4C810712D5400757
:1009B00003D5606840F4E06060602878000703D5E4
:1009C000606840F4605060606068A96820F0F000E2
:1009D000084360602878C00728D06868012810D0D4
:1009E0002168022810D0890700292EDA616821F0D9
:1009F000030101436160FFF7A9FD804641F2883998
:100A00000DE021688903EFE78901EDE7FFF79EFD1F
:100A1000A0EB0801494502D90320BDE8F0876068D2
:100A2000696800F00C00B0EB810FEFD1306800F086
:100A30000700B8420BD9306820F007003843306017
:100A4000306800F00700B84201D00120E5E72878BF
:100A5000400705D56068E96820F4E06008436060FD
:100A60002878000706D56068296920F4605040EABC
:100A7000C100606000F028F86168084AC1F3031102
:100A8000515CC8400649086006480068FFF706FF49
:100A90000020C2E70020024000100240242000088D
:100AA000140000200C000020044805490068496833
:100AB000044AC1F30221515CC84070471400002071
:100AC000001002403420000812A185B00FC98DE843
:100AD0000F0014A0144A006804905168134801F0F4
:100AE0000C03042B10D0082B0ED1C1F38343C90390
:100AF0001DF803000AD5516804AAC1F34041515CB6
:100B00000A4A5043B0FBF1F005B07047084948432A
:100B1000FAE7000002030405060708090A0B0C0D9A
:100B20000E0F1010010200000010024000127A00A7
:100B300000093D002DE9F84F040070D02078C04D29
:100B4000C00749D06868C0F38100012807D06868F1
:100B5000C0F38100022809D16868C00306D528685F
:100B6000800339D560680028E7D035E06068B0F5CB
:100B7000803F0BD010B1B0F5A02F11D0286820F421
:100B800080302860286820F4802002E0286840F443
:100B900080302860606890B1FFF7D8FC06460AE014
:100BA000286840F480202860F0E700BFFFF7CEFC03
:100BB000801B642873D828688003F7D50CE0FFF702
:100BC000C5FC064605E000BFFFF7C0FC801B64289B
:100BD000F0D828688003F7D420789A4E80074FF029
:100BE00001094FF0000839D5686810F00C0F07D0E4
:100BF0006868C0F38100022809D16868C00306D480
:100C00002868800714D52069012808D110E02069E0
:100C1000B0B1C6F80090FFF799FC074605E00AE17D
:100C2000FFF794FCC01B0228C4D828688007F7D5BA
:100C30002868616920F0F80040EAC10028600DE0F2
:100C4000C6F80080FFF782FC074604E0FFF77EFC51
:100C5000C01B022823D828688007F7D42078000713
:100C60002CD57948A169D9B1C0F80090FFF76EFC86
:100C7000074604E0FFF76AFCC01B02280FD8686A29
:100C80008007F7D571484FF4FA510068B0FBF1F0D6
:100C9000009000BF0098411E0091FAD20EE080E063
:100CA000C0F80080FFF752FC074604E0FFF74EFC57
:100CB000C01B022875D8686A8007F7D420784007DF
:100CC00060D5E8690027C00008D4E86940F080508A
:100CD000E861E869012700F0805000905C480168F5
:100CE000C90513D40168834641F480710160FFF7A0
:100CF0002DFC824606E000BFFFF728FCA0EB0A00AF
:100D000064284ED8DBF80000C005F5D5E06801285E
:100D10000AD008B1052813D0286A20F00100286203
:100D2000286A20F0040002E0286A40F001002862EE
:100D3000E06841F2883B98B1FFF708FC82460BE07F
:100D4000286A40F004002862EEE700BFFFF7FEFBD0
:100D5000A0EB0A0159455AD8286A8007F6D50CE05D
:100D6000FFF7F4FB824605E0FFF7F0FBA0EB0A017A
:100D700059454CD8286A8007F6D41FB1E86920F09D
:100D80008050E861E06988B36968C1F38101022994
:100D900044D00228C6F8608004D0FFF7D7FB044691
:100DA00038E034E0FFF7D2FB074604E0FFF7CEFB64
:100DB000C01B02282BD828688001F7D4206AB0F520
:100DC000803F05D16868A16820F40030084368605E
:100DD000D4E908010843696821F474110843686084
:100DE000C6F86090FFF7B2FB044606E025E000BFBE
:100DF000FFF7ACFB001B022809D828688001F7D553
:100E00001BE000BFFFF7A2FB001B022802D9032052
:100E1000BDE8F88F28688001F4D40EE00128F7D0EF
:100E20006868226A00F48031914204D1616A00F45A
:100E30007010884201D00120EAE70020E8E70000B6
:100E40000010024000004242800442421400002090
:100E50000070004070B5040009D0606A002540B100
:100E600025616561A56294F8510040B10CE0012054
:100E700070BD6068B0F5827FF4D0E561F2E784F878
:100E80005050204600F040F8022084F851002068BD
:100E9000016821F040010160A088218900F482707E
:100EA00001F404410843A18901F400610843217C55
:100EB00001F002010843217D01F001010843218B6B
:100EC00001F400710843217F01F03801084394F8D0
:100ED000201001F080010843218D01F400510843E6
:100EE00021680860A069042101EA10402168486077
:100EF0002068C16921F40061C1616565012084F841
:100F00005100002070BD000030B585B00024009471
:100F100001940294039400681449884223D1144830
:100F2000816941F480518161816901F480510491AA
:100F3000816941F00401816180690E4D00F0040077
:100F40000490A020009002200190032003906946A5
:100F50002846FFF7FDF94020CDE900046946284600
:100F60000294FFF7F5F905B030BD000000300140F4
:100F700000100240000801402DE9F84F044690F8A7
:100F8000500000270A9E1D4692468B464FF00109ED
:100F900001280ED0012084F85000FFF7D7FA8046D0
:100FA00094F85100616801280CD0B1F5827F07D117
:100FB00002E00220BDE8F88FA16809B9042801D039
:100FC0000227C2E0BBF1000F27D0BAF1000F24D0F6
:100FD0001DB394F85100042802D0052084F8510074
:100FE00000206065C4F838A0E587A587C4F830B054
:100FF000E586A5862064606420680168490603D4FC
:10100000016841F040010160E068B0F5006F606880
:1010100005D0E8B3012D46D07FE0012795E008B167
:10102000012D39D1206B21680088C860206B801C9D
:101030002063E08E401EE0862EE0206881688907EC
:101040000FD5E18E69B1B9F1010F0AD1216B098881
:10105000C160206B801C2063E08E401EE0864FF054
:10106000000920688168C9070CD0E18F51B1C068C0
:10107000A16B0880A06B801CA063E08F401EE087FE
:101080004FF00109FFF762FAA0EB0800B04200E060
:1010900009E001D3701C50D1E08E0028CDD1E08F43
:1010A0000028CAD13FE0206B216800780873206BCC
:1010B000401C2063E08E401EE0862EE020688168A0
:1010C00089070FD5E18E69B1B9F1010F0AD1216B02
:1010D00009780173206B401C2063E08E401EE0867F
:1010E0004FF0000920688168C9070CD0E18F51B129
:1010F000C068A16B0870A06B401CA063E08F401E0D
:10110000E0874FF00109FFF721FAA0EB0800B04299
:1011100002D3701C01D010E07EB1E08E0028CDD14A
:10112000E08F0028CAD142463146204600F074FBC9
:1011300028B101272020606507E0032705E0A068AB
:1011400018B92068C16880680090012084F85100B7
:10115000002084F8500038462CE710B5401EB0F14E
:10116000807F01D3012010BD4FF0E02460610F218A
:10117000601700F0F7FB0020A0610720206100202D
:1011800010BDFEE701684A69D24352050FD46FF4DF
:1011900080624A61002140F8301F2022427381732F
:1011A000026942F0040202610173012070470020CD
:1011B00070470000F8B50446C06A1E460D46174643
:1011C000082807D0012805D010F5803F02D0206BF9
:1011D000122804D12068016841F48071016013462F
:1011E00000224FF001112046009600F057F840B160
:1011F00020680068C00502D54FF400702064032009
:10120000F8BD2069B0F5804F0ED00620216800EAB5
:10121000D51040F0F000086133463A460B492046AD
:1012200000F070F878B902E005F0FE0000E0E8B2E6
:1012300021680861054933463A46891F204600F077
:1012400061F80028DCD00120F8BD00000800010092
:1012500070B516460D4604460DE02046FFF792FF96
:1012600008B1012070BD681C05D0FFF76FF9801B25
:10127000A84207D835B120684069C0434007ECD484
:10128000002070BD002044F8300F20216173A0734E
:10129000216941F0200121612073E2E72DE9F04747
:1012A0001E4690460D460446C1F30747DDF82090E0
:1012B00008E0701C06D0FFF749F9A0EB0900B04226
:1012C0000FD876B12068012F18D0806925EA000078
:1012D0000004000C14D000214145EAD00020BDE8F4
:1012E000F087002044F8300F20216173A07321693A
:1012F00041F02001216120730120F0E74069E5E71A
:101300000121E9E72DE9F0479A4691460E46044649
:1013100000254FF02008C1F3074725E02068406909
:10132000C043400514D42068016841F40071016095
:1013300021686FF480604861256384F83D8084F8FB
:101340003E50206C40F00400206484F83C501FE0C4
:10135000B9F1FF3F08D0FFF7F9F8A0EB0A014945C2
:101360000CD8B9F1000F09D02068012F13D0806983
:1013700026EA00000004000C0BD0CFE744F8305FF1
:1013800084F80D80A573206940F02000206125734A
:101390000120BDE8F0874069EAE770B516460D46C2
:1013A00004460DE02046FFF7EDFE08B1012070BDB8
:1013B000681C05D0FFF7CAF8801BA84207D835B1D2
:1013C00020684069C0430006ECD4002070BD0020B6
:1013D00044F8300F20216173A073216941F020018E
:1013E00021612073E2E710B5142000F0AEF8800709
:1013F00005D10321BDE81040142000F0C8B810BD8D
:101400007CB50446002529460D2000F056F99320AE
:1014100020702020607001A8234600900222194607
:101420000C2000F0C0F8010009D1225C401C55409E
:10143000C0B20428F9D3205CA84200D0022108469B
:101440007CBD2DE9F0410E460746154604210520D6
:1014500000F036F880210A2000F099F8002405E019
:10146000395D092000F029F9641CE4B2B442F7D3D5
:101470000321012000F021F9FF24052000F065F888
:10148000641E14F0FF0401D04007F6D5222000F0BE
:101490005CF82870212000F058F86870BDE8F081F1
:1014A00070B505460146262000F056F8040003D129
:1014B0002846FFF7A5FF044600F00EF8204670BD51
:1014C00070B50C46054600F040F820EA04012846B5
:1014D000BDE8704000F0F1B80EB550208DF8040062
:1014E00000208DF805000DF10602022101A8FFF78A
:1014F000A8FF02A801AB0090042219460C2000F0BE
:1015000052F80EBD10B500F03EF88D212A2000F0F3
:10151000D4F83E212B2000F0D0F81E212D2000F021
:10152000CCF800212C2000F0C8F87021262000F013
:10153000C4F84021152000F0C0F83D21112000F032
:10154000BCF8BDE81040FFF74EBF7E2101EA400025
:1015500040F0800000F030B97CB50C46054607210C
:101560000D2000F0AAF8257001A823460090012262
:1015700019460C2000F017F818B9BDF8041010290E
:1015800000D002207CBD0F21012000F096B870B57C
:101590000C460546FFF7D9FF40EA04012846BDE89E
:1015A000704000F08AB82DE9FF5F00270226DDF8C1
:1015B00038A015468B468146B8460C2805D0B9F1AF
:1015C0000E0F05D11227102001E07727302080462A
:1015D00047F08001022000F070F880210420FFF71E
:1015E0006FFF80210A20FFF7D2FF0021012000F0C9
:1015F00064F8002406E01BF80410092000F05DF8F0
:10160000641CA4B2AC42F6D34946012000F055F860
:10161000B9F10C0F03D180210D20FFF7B8FF4FF473
:10162000FA650420FFF791FF6D1E2D0404462D0C72
:1016300004D0E00702D114EA080FF2D080210D2077
:10164000FFF73EFF35B10620FFF77FFF10F01B0FBD
:1016500004D0022604B03046BDE8F09F00263C408E
:10166000E00700D00126B9F10C0FF3D10A20FFF7F3
:101670006CFF04460C20FFF768FF10F007004FEAEC
:10168000C40104D008390844AAF8000001E0AAF80F
:10169000001024B1102C04D91024002503E00124EB
:1016A000FBE7002506E00920FFF74FFF03994855A7
:1016B0006D1CADB2A542F6D3CCE77E2202EA400013
:1016C00000F092B82DE9F04186B000242048009443
:1016D000019402940394816941F010018161816950
:1016E00001F010010491816941F004018161816977
:1016F00001F004010491816941F008018161806970
:10170000144F00F008004FF40055049000222946C1
:101710003846FEF715FFDFF84080002210214046D2
:10172000FEF70EFF0095022601250396CDE9015430
:1017300069463846FEF70CFE1020CDE90005CDE9DC
:10174000024669464046FEF703FE06B0BDE8F0815A
:101750000010024000100140000801400B480A49F7
:101760004FF4007201604FF482714160002181608A
:10177000C1600161C0E90512C1610162416281621B
:101780000A21C162FFF766BB003001406C000020F7
:10179000FEE77047704700000EB501238DF8040086
:1017A0000A20009002AA01A90248FFF7E5FB9DF874
:1017B00008000EBD6C00002070B50A4D04460022E2
:1017C00010212846FEF7BCFE2046FFF7E5FF00206B
:1017D000FFF7E2FF0446012210212846FEF7B0FE83
:1017E000204670BD0008014070B50A4C0E46054603
:1017F000002210212046FEF7A3FE2846FFF7CCFF6B
:101800003046FFF7C9FF2046BDE870400122102195
:10181000FEF796BE0008014038B50B46009204461C
:101820000022802100F008F8002804D0606D40F00C
:1018300020006065032038BD2DE9F8431E4691461F
:1018400088460446089DFEF781FE401B351AFEF7C8
:101850007DFE074625480068C0F3CB30684338E07A
:10186000701C37D0FEF772FEC01BA84203D215B120
:10187000009860B32CE02068416821F0E0014160ED
:101880006068B0F5827F0BD1A068B0F5004F02D040
:10189000B0F5806F04D12068016821F0400101603B
:1018A000A06AB0F5005F09D12068016821F40051F9
:1018B00001602068016841F400510160012084F852
:1018C0005100002084F850000320BDE8F883002573
:1018D000401E00902068816838EA010004D0002191
:1018E0004945BDD10020F0E70121F9E714000020AF
:1018F0007047FEF7B9BF10B590B028216846FEF7D3
:101900002AFC14210AA8FEF726FC022000900120E0
:10191000049010200024059007946846FFF70AF908
:101920000F20CDE90A040C940D9400210AA80E940E
:10193000FFF724F810B010BD7047FEE70FB4084B56
:1019400010B504A902AA039800F02CF8044602A9D5
:10195000002000F052FA204610BC5DF814FB000095
:10196000FB1D00080907090E002804DB00F1E02038
:1019700080F80014704700F00F0000F1E02080F8BC
:10198000141D704702E008C8121F08C1002AFAD1CE
:1019900070477047002001E001C1121F002AFBD1EF
:1019A000704700002DE9FF4F8DB00F460546002619
:1019B00006E025280BD0DDE90F1290476D1C761C40
:1019C00028780028F5D111B03046BDE8F08F00240A
:1019D000A246A1460122E94900E0044315F8013F6F
:1019E000203B02FA03F00842F7D128782A2810D0C9
:1019F0006FF02F022878A0F13001092914D80AEBE2
:101A00008A0102EB410144F0020400EB010A6D1C63
:101A1000F0E701CF5FEA000A03D544F40054CAF1AD
:101A2000000A44F002046D1C28782E2817D115F8FE
:101A3000010F44F004042A280ED06FF02F022878FA
:101A4000A0F1300109290AD809EB890102EB410113
:101A500000EB01096D1CF2E757F8049B6D1C287818
:101A60006C280FD006DC4C2817D068280DD06A28C7
:101A700014D104E0742810D07A280FD10DE044F47A
:101A800000140AE044F4801401E044F4401469783E
:101A9000814202D104F580146D1C6D1C28786E28DB
:101AA0001ED00CDC632830D004DC00288BD05828F2
:101AB00011D19FE0642867D069280CD164E07328B5
:101AC0002DD004DC6F2872D0702804D194E07528E2
:101AD0006ED078286DD0DDE90F129047761C4BE16F
:101AE000C4F30250022806D0032809D0042801CFED
:101AF00009D0066040E101CFF117C0E900613BE188
:101B000001CF068038E1067036E117F8040B8DF836
:101B1000000000208DF80100EB46012003E057F89B
:101B200004BB4FF0FF3061074FF0000102D40DE01D
:101B300008F10101884649450FDA8045F8DB1BF8BA
:101B400008100029F4D108E008F10101884681421B
:101B5000FADB1BF808100029F6D1DDE90F23AAEB08
:101B600008008146214600F031F9304400EB0806B8
:101B700004E0DDE90F121BF8010B9047B8F10108F2
:101B8000F7D221464846F2E00A21C4F302524FF050
:101B9000000B0891022A04D001CFC117032A09D0F3
:101BA0000AE0FF1D27F00707F7E8020108E02CE034
:101BB0001EE01FE000B2C117042A01D140B2C117D4
:101BC000021E71F1000206DA0023D0EB030063EB82
:101BD00001012D2202E0220504D52B228DF82420BC
:101BE000012203E0E20701D02022F7E7904653E00C
:101BF0000A210BE0102109E010214FF0000B44F006
:101C000004044FF00809089103E008214FF0000B8D
:101C10000891C4F30252022A04D001CF0021032A02
:101C200006D006E0FF1D27F00707F7E8020103E0F2
:101C300080B2042A00D1C0B24FF0000822072BD591
:101C40002A78702A07D0DDF820C08CF0100C5CEAEE
:101C50000B0C05D00EE040228DF82420012208E074
:101C600050EA010306D030238DF824308DF825206A
:101C700002229046089B83F0080353EA0B030BD122
:101C800050EA010201D1620706D530228DF82420E6
:101C90004FF00108A9F101092A78582A04D038A286
:101CA0000B9208AA0A920BE03AA2F9E75B46089A5F
:101CB000FEF763FA0B9B9B5C0A9A521E0A92137002
:101CC00050EA0102F2D10A98ADEB000000F1200BBE
:101CD000600702D524F4803401E04FF00109D945B2
:101CE00002DDA9EB0B0000E0002000EB0B014144FA
:101CF0000890AAEB010AE00306D4DDE90F23214690
:101D0000504600F063F806444FF0000908E009A9C6
:101D100011F80900DDE90F12904709F10109761C5D
:101D2000C145F4DBE0030CD5DDE90F232146504625
:101D300000F04CF8064404E0DDE90F123020904733
:101D4000761C0899481E08900029F5DC08E00A98DE
:101D50000A990078491C0A91DDE90F129047761C18
:101D6000BBF10001ABF1010BF1DC21465046DDE98E
:101D70000F2300F019F806446D1C21E60928010024
:101D800030313233343536373839616263646566F1
:101D900000000000303132333435363738394142B3
:101DA00043444546000000002DE9F041044600256B
:101DB0001E461746880404D405E039462020B04763
:101DC0006D1C641EF9D52846BDE8F0812DE9F0416F
:101DD000044600251E469046C80301D5302700E082
:101DE0002027880404D505E041463846B0476D1CDD
:101DF000641EF9D52846BDE8F0810A68531C0B60C3
:101E000010707047012000F039B8012805D040312A
:101E1000C8B240F0800000F031B88031C8B2FAE7B3
:101E200010B5332000F02AF8322000F027F83220D5
:101E3000FEF768FA282000F021F83220FEF762FA57
:101E4000012000F01BF83220FEF75CFA062000F0BB
:101E500015F83220FEF756FA0C2000F00FF8322069
:101E6000FEF750FA022000F009F83220FEF74AFA95
:101E7000BDE81040802000F001B800001CB500F063
:101E8000F00141F00C028DF8042041F0080100013E
:101E90008DF8051040F00C018DF8061040F0080098
:101EA0008DF8070064200090042301AA4E21024807
:101EB000FEF716FC1CBD0000180000201CB500F049
:101EC000F00141F00D028DF8042041F009010001FC
:101ED0008DF8051040F00D018DF8061040F0090056
:101EE0008DF8070064200090042301AA4E210248C7
:101EF000FEF7F6FB1CBD00001800002010B50446DC
:101F000002E0641CFFF7DAFF20780028F9D110BD49
:101F10000EB5FEF7B1FCFFF7EEFCFFF7D3FB2F4841
:101F20002D494FF4804201602D49416000218160BC
:101F3000C0E9031241618161C1610162FEF70CFBDE
:101F4000FFF70CFCFFF7DEFA4FF47A742046FEF739
:101F5000D9F9FFF765FF00210120FFF756FF21A007
:101F6000FFF7CCFF3220FEF7CDF92348FFF798FAB0
:101F70000028FAD14FF400512048FEF7D9FAFFF7B4
:101F800041FF00210846FFF740FF1B4988780B7985
:101F9000CA788DE80D0011484B780A7818A1AC304A
:101FA000FFF7CCFC2046FEF7ADF900210846FFF70D
:101FB0002CFF19A0FFF7A2FF04210020FFF725FF47
:101FC0000648AC30FFF79AFF0448144A1449AC3075
:101FD000FEF744F9C9E70000005400401800002053
:101FE000A086010057616974696E6720666F722070
:101FF000524649440000000000000020001001404B
:102000002530325825303258253032582530325854
:10201000253032580000000049443A0010F8010809
:1020200000FC0108000000000000000001020304A1
:102030000607080900000000010203045C200008F4
:102040000000002018000000841900087420000817
:10205000180000201005000094190008000000007E
:10206000000000000100000010000000000000005F
:042070000024F40054
:04000005080000ED02
:00000001FF
