:020000040800F2
:10000000F8040020050100080B170008551300082C
:10001000091700089D01000859170008000000009A
:100020000000000000000000000000000F170008A2
:10003000D1050008000000000D1700081117000886
:100040001F0100081F0100081F0100081F01000810
:100050001F0100081F0100081F0100081F01000800
:100060001F0100081F0100081F0100081F010008F0
:100070001F0100081F0100081F0100081F010008E0
:100080001F0100081F0100081F0100081F010008D0
:100090001F0100081F0100081F0100081F010008C0
:1000A0001F0100081F0100081F0100081F010008B0
:1000B0001F0100081F0100081F0100081F010008A0
:1000C0001F0100081F0100081F0100081F01000890
:1000D0001F0100081F0100081F0100081F01000880
:1000E0001F0100081F0100081F010008DFF810D0E1
:1000F00000F042F800480047851A0008AFF300807E
:10010000F80400200648804706480047FEE7FEE75F
:10011000FEE7FEE7FEE7FEE7FEE7FEE7FEE7FEE7B7
:1001200057170008ED000008D2B201E000F8012BDB
:10013000491EFBD270470022F6E710B513460A4667
:1001400004461946FFF7F0FF204610BD30B50B46B8
:10015000014600202022012409E021FA02F59D42F7
:1001600005D303FA02F5491B04FA02F52844151ECB
:10017000A2F10102F1DC30BD064C074D06E0E0685B
:1001800040F0010394E8070098471034AC42F6D3DE
:10019000FFF7B0FFB81B0008D81B0008FEE77FB5CB
:1001A000044600F0BBF910B1012004B070BD002579
:1001B0008DF804508DF80C502069009021790123AE
:1001C00003AA206800F0F8FCD0B9206900902179DA
:1001D000012301AA206800F0CDFB88B99DF8040036
:1001E000029520F080008DF804008DF80900206948
:1001F00000902179022302AA206800F0DDFC08B1FA
:100200000220D2E704B02046BDE8704000F086B975
:1002100010B5044600F082F908B1012010BD204657
:1002200000F094F940F01001204600F0B1F92046AA
:10023000BDE8104000F072B92DE9FF4107460E46B7
:10024000084600F06BF900287DD100248DF80C40A1
:10025000306964F30F05009064F3174564F31F657C
:100260003179012303AA306800F0A6FC00286AD186
:10027000306900903179082301AA306800F07AFBD8
:10028000002860D19DF8040000F00F02C0F30210B6
:1002900002EB146100EB800001EB400060F31F648F
:1002A0009DF8050000F00F02C0F3021002EB1441AC
:1002B00000EB800001EB400060F317449DF806005E
:1002C00041060BD400F00F02C0F3011002EB142121
:1002D00000EB800001EB400060F30F249DF8070065
:1002E00000F00F01C0F30110214400EB800001EB8E
:1002F00040009DF8081060F3070401F00F00C1F3FF
:10030000011101EB810100EB41009DF8091060F340
:100310001F6501F00F00C1F3001101EB810100EB3B
:1003200041009DF80A1060F3174501F00F0009091C
:1003300001EB810100F5FA6000EB410060F30F056D
:10034000304600F0EBF83D607C60BDE8FF8110B501
:100350000446C068216808602168A0684860216878
:10036000002088602168C86022684FF480411161D4
:1003700021688861206800F0B5FC206800F036FA3A
:100380002046BDE8104000F0C9B870B50C460546DF
:1003900000F0C4F808B1012070BD284600F0D6F87E
:1003A00000F0FC0104F003000143284600F0F0F8DF
:1003B0002846BDE8704000F0B1B8FEB50D461446C1
:1003C000064600F0ABF808B10120FEBD0020014652
:1003D00001AA1154401C0828FBDB210E0A23B1FBA3
:1003E000F3F003FB10109DF805201043B1FBF3F26E
:1003F00003FB1212891A91FBF3F140EA011020F07D
:1004000080008DF80500C4F30740B0FBF3F103FB57
:1004100011019DF806201143B0FBF3F203FB120219
:10042000801A90FBF3F041EA00108DF80600C4F347
:100430000720B0FBF3F103FB11019DF807201143E6
:10044000B0FBF3F203FB1202801A90FBF3F041EAD7
:10045000001020F040008DF80700E0B2B0FBF3F18F
:1004600003FB11019DF808201143B0FBF3F203FBDD
:100470001202801A90FBF3F041EA00108DF8080098
:10048000290EB1FBF3F003FB10109DF80920104377
:10049000B1FBF3F203FB1212891A91FBF3F140EA6C
:1004A00001108DF80900C5F30740B0FBF3F103FB21
:1004B00011019DF80A201143B0FBF3F203FB120275
:1004C000801A90FBF3F041EA00108DF80A00AAB2FE
:1004D000A2F5FA6090FBF3F103FB11019DF80B40CC
:1004E000214390FBF3F403FB1400101AA0F5FA600B
:1004F00090FBF3F041EA00108DF80B00306900909A
:100500003179082301AA306800F056FB08B10220B7
:10051000FEBD3046BDE8FE40AFF3008070B5044636
:100520004FF0E026B569206800F05CF9202804D07F
:100530002069B1690844A842F4D8206800F052F953
:10054000202801D0012070BD002070BD1CB50446DC
:10055000FFF7E4FFA0B907208DF8040020690090A0
:100560002179012301AA206800F026FB40B9206907
:1005700000902179012301AA206800F0FBF908B15D
:1005800000201CBD2046FFF7C9FF9DF804001CBDDC
:100590007CB50D460446FFF7C1FF08B101207CBDC4
:1005A0000AA00223006801908DF805502069009090
:1005B000217901AA206800F0FFFA08B102207CBD71
:1005C0002046BDE87C40FFF7A9BF000007000000FF
:1005D0007047000070B5044600F0FEF80546601C48
:1005E00002D004480078044400F0F6F8401BA04212
:1005F000FAD370BD140000202DE9F84FDFF8B89150
:10060000002409F1040A0AF1040B23460F270BF119
:10061000040EC9E00125A5402A40AA427DD1674EBB
:10062000D1F804C0ACEB0608B44532D014DCBCF100
:10063000030F3AD009DCBCF1000F2AD0BCF1010F46
:100640001CD0BCF1020F31D11DE0BCF1110F17D04D
:10065000BCF1120F2AD119E0B8F5881F19D006DCB9
:10066000B8F5803F15D0B8F5801F1FD111E0B8F55F
:10067000001F0ED0B8F5041F18D10AE0CB6815E0B2
:10068000CB681B1D12E0CB6808330FE0CB680C333E
:100690000CE08B682BB1012B4FF0080303D04561B0
:1006A00004E0042302E0056100E00023FF2A01D8F2
:1006B000064601E000F104064FEA840501D9A5F1E0
:1006C0002005D6F8008007FA05FC28EA0C0803FA92
:1006D00005F548EA0508C6F800804D68ED0062D5CA
:1006E000374DAE6946F00106AE61AD6924F00306F0
:1006F00005F001050095334D06EB050CDCF80850BC
:10070000A607360F07FA06F825EA0805DFF8B880CD
:10071000404503D14FF0000817E044E0DFF8AC801B
:10072000404502D14FF001080FE0DFF8A4804045BA
:1007300002D14FF0020808E0DFF89880404502D16E
:100740004FF0030801E04FF0040808FA06F848EA01
:100750000508CCF808804D68D9F80060ED034D46D7
:1007600001D5164300E096432E604D68DAF800602C
:10077000AD03554601D5164300E096432E604D6803
:10078000DBF80060ED025D4601D5164300E09643BC
:100790002E604D68DEF80060AD02754601D5164347
:1007A00000E096432E60641C0D682A46E5407FF405
:1007B00031AFBDE8F88F00000004014000001110C7
:1007C000001002400000014000080140000C014000
:1007D000001001400014014001488068704700008B
:1007E0001400002090F83D007047000070B5040030
:1007F00025D094F83D00002520B984F83C502046CF
:1008000000F070FA242084F83D002068016821F08F
:10081000010101602068016841F400410160206825
:10082000016821F40041016000F0AAFB4D4A6168B3
:10083000914201D84C4900E04C49884201D2012044
:1008400070BD4B492368B0FBF1F15E6826F03F06AE
:100850000E435E606368934206D94FF49673594322
:100860004FF47A73B1FBF3F12368491C1E6A26F03A
:100870003F06314319626168914210D84900401E19
:10088000B0FBF1F2521CC2F30B02042A01D2042085
:1008900022E0B0FBF1F0401CC0F30B001CE0A268AA
:1008A000F2B301EBC10303EB0116431EB3FBF6F3F6
:1008B0005B1C43F480431B0549D092B301EBC1029A
:1008C00002EB0111401EB0FBF1F0401CC0F30B0025
:1008D00040F4804040F400402168CA694CF6FF7340
:1008E0009A431043C861D4E90710014320680268A5
:1008F00022F0C00211430160D4E9030101432068E2
:10090000826848F2FF339A4311438160D4E90501BC
:1009100008432168CA6822F0FF021043C86001E062
:100920000EE016E02068016841F0010101602564D5
:10093000202084F83D00256384F83E50002070BDDF
:1009400001EB4106431EB3FBF6F35B1CB3E701204A
:10095000C2E701EB4101401EB0FBF1F0401CC0F3C7
:100960000B00B7E7A086010080841E0000093D004F
:1009700040420F002DE9F84F0025DDF828909846F9
:1009800017468A4604460095FFF726FF064694F868
:100990003D0020287AD11923012283492046009660
:1009A00000F0DAFD0028F5D194F83C0001286DD064
:1009B000012084F83C0020680168C90703D1016860
:1009C00041F0010101602068016821F400610160CB
:1009D000222084F83D00102084F83E0025646762E0
:1009E000A4F82A80608D20857048E06233464A462C
:1009F0005146204600F0C6FC00287DD1208DDFF84E
:100A0000B081202768B1012814D00228206801682D
:100A10001ED041F4806101602068416980690090C6
:100A2000B5E02068416981690091016841F4007175
:100A30000160ACE02068016821F48061016072B659
:100A40002068416981690091016841F400710AE000
:100A500041F40061016072B62068416981690091CA
:100A6000016821F48061016062B690E0032868D8D3
:100A700001280CD002284B464FF000024146204688
:100A800000960FD000F068FDB0BB10E08AE032465F
:100A90004946204600F0DFFD70BB20680069616AAE
:100AA00008706BE000F058FD30BB72B634E020688F
:100AB000016821F48061016072B620680069616A92
:100AC0000870606A401C6062208D401E2085608D29
:100AD000401E6085374846F2A8110068B0FBF1F06F
:100AE000C0EBC00000EB80000090401E009008D0DA
:100AF00020684069C04300E029E040070CD5009819
:100B0000F3E744F8305F6773A573206940F0200075
:100B1000206162B625731AE02068016841F4007113
:100B2000016020680069616A0870606A401C606248
:100B3000218D491E2185618D491E618562B621681E
:100B40001AE032464946204600F085FD10B10120EA
:100B5000BDE8F88F20680069616A0870606A401C0F
:100B60006062218D491E2185618D491E6185216844
:100B70004A69D24352070AD409690170606A401C6D
:100B80006062208D401E2085608D401E6085208D16
:100B900000287FF46BAF84F83D7084F83E5084F8F1
:100BA0003C50D5E70220D3E7020010000000FFFF11
:100BB00004000100200000202DE9F84F1F46904658
:100BC0008A460446DDF82890FFF706FE054694F8AD
:100BD0003D0020287FD1192301224049204600955D
:100BE00000F0BAFC002876D194F83C00012872D0BD
:100BF000012084F83C0020680168C90703D101681E
:100C000041F0010101602068016821F40061016088
:100C1000212084F83D00102084F83E000026266440
:100C2000C4F824806785608D20852D48E0622B46BE
:100C30004A465146204600F01BFC90B920684169A5
:100C40008069009036E02A464946204600F036FD8D
:100C500050B1206C042804D12068016841F400716F
:100C600001600120BDE8F88F606A216800780861A2
:100C7000606A401C6062618D491E6185218D491E3C
:100C800089B2218522685369DB435B070BD451B1DC
:100C900000781061606A401C6062608D401E608553
:100CA000208D401E20852A464946204600F02EFC15
:100CB0000028CED1208D0028C5D154F83D0B016805
:100CC00041F400710160202004F81E09E677667780
:100CD0000020C7E7FFE70220C4E700000200100081
:100CE0000000FFFF10B586B0002100910191029134
:100CF000039100680F4988421AD10F4CA06940F057
:100D00000800A061A069694600F008000490C020B6
:100D1000009012200190032003900848FFF76CFC1C
:100D2000E06940F40010E061E06900F40010049014
:100D300006B010BD0054004000100240000C0140FD
:100D400002488168027811448160704714000020D5
:100D5000074810B5016841F010010160032000F060
:100D600067F8002000F006F800F024F8002010BD1D
:100D70000020024070B50D4D04464FF47A7128787A
:100D8000B1FBF0F00A490968B1FBF0F000F0CEFACF
:100D900048B9102C07D200222146501E00F028F836
:100DA00000206C6070BD012070BD000014000020A8
:100DB000200000200C4808B5816941F001018161E3
:100DC000816901F001010091C16941F08051C16167
:100DD000C06900F0805000900448416821F0E06153
:100DE00041F00071416008BD001002400000014068
:100DF000F0B40E4B1B680C46C3F30223C3F1070586
:100E0000042D00D90425191D072901D2002300E073
:100E1000DB1E012606FA05F1491E214099409E403D
:100E2000761E16403143F0BC00F0ACBC0CED00E087
:100E3000064900F0070208684FF6FF03184040EA31
:100E40000220034A10430860704700000CED00E0E8
:100E50000000FA052DE9F0470F46050061D0434E2A
:100E6000306800F00700B84209D2306820F007006F
:100E700038433060306800F00700B84251D128682C
:100E80003B4C810712D5400703D5606840F4E06011
:100E900060602878000703D5606840F460506060A7
:100EA0006068A96820F0F000084360602878C007F7
:100EB00028D06868012810D02168022810D089073E
:100EC00000292EDA616821F0030101436160FFF718
:100ED00083FC804641F288390DE021688903EFE701
:100EE0008901EDE7FFF778FCA0EB0801494502D93D
:100EF0000320BDE8F0876068696800F00C00B0EB83
:100F0000810FEFD1306800F00700B8420BD930688C
:100F100020F0070038433060306800F00700B84226
:100F200001D00120E5E72878400705D56068E96829
:100F300020F4E060084360602878000706D5606808
:100F4000296920F4605040EAC100606000F028F890
:100F50006168084AC1F30311515CC8400649086042
:100F600006480068FFF706FF0020C2E700200240A5
:100F700000100240A01B00082000002018000020E4
:100F80000448054900684968044AC1F30221515CDC
:100F9000C84070472000002000100240B01B00082D
:100FA00012A185B00FC98DE80F0014A0144A006883
:100FB00004905168134801F00C03042B10D0082B47
:100FC0000ED1C1F38343C9031DF803000AD551684C
:100FD00004AAC1F34041515C0A4A5043B0FBF1F00E
:100FE00005B0704708494843FAE7000002030405CA
:100FF000060708090A0B0C0D0E0F10100102000065
:101000000010024000127A0000093D002DE9F84F5F
:10101000040070D02078C04DC00749D06868C0F384
:101020008100012807D06868C0F38100022809D137
:101030006868C00306D52868800339D56068002831
:10104000E7D035E06068B0F5803F0BD010B1B0F567
:10105000A02F11D0286820F480302860286820F460
:10106000802002E0286840F480302860606890B1F9
:10107000FFF7B2FB06460AE0286840F480202860AB
:10108000F0E700BFFFF7A8FB801B642873D828682F
:101090008003F7D50CE0FFF79FFB064605E000BF95
:1010A000FFF79AFB801B6428F0D828688003F7D4E8
:1010B00020789A4E80074FF001094FF0000839D58B
:1010C000686810F00C0F07D06868C0F38100022830
:1010D00009D16868C00306D42868800714D5206940
:1010E000012808D110E02069B0B1C6F80090FFF7E0
:1010F00073FB074605E00AE1FFF76EFBC01B022801
:10110000C4D828688007F7D52868616920F0F800FE
:1011100040EAC10028600DE0C6F80080FFF75CFBE4
:10112000074604E0FFF758FBC01B022823D82868B5
:101130008007F7D4207800072CD57948A169D9B168
:10114000C0F80090FFF748FB074604E0FFF744FBB8
:10115000C01B02280FD8686A8007F7D571484FF482
:10116000FA510068B0FBF1F0009000BF0098411EFA
:101170000091FAD20EE080E0C0F80080FFF72CFB6F
:10118000074604E0FFF728FBC01B022875D8686AF1
:101190008007F7D42078400760D5E8690027C000B1
:1011A00008D4E86940F08050E861E869012700F060
:1011B000805000905C480168C90513D401688346DB
:1011C00041F480710160FFF707FB824606E000BF33
:1011D000FFF702FBA0EB0A0064284ED8DBF8000002
:1011E000C005F5D5E06801280AD008B1052813D05C
:1011F000286A20F001002862286A20F0040002E03A
:10120000286A40F001002862E06841F2883B98B10A
:10121000FFF7E2FA82460BE0286A40F004002862F9
:10122000EEE700BFFFF7D8FAA0EB0A0159455AD8FC
:10123000286A8007F6D50CE0FFF7CEFA824605E073
:10124000FFF7CAFAA0EB0A0159454CD8286A800773
:10125000F6D41FB1E86920F08050E861E06988B3F6
:101260006968C1F38101022944D00228C6F8608070
:1012700004D0FFF7B1FA044638E034E0FFF7ACFAE7
:10128000074604E0FFF7A8FAC01B02282BD82868FD
:101290008001F7D4206AB0F5803F05D16868A16865
:1012A00020F4003008436860D4E908010843696805
:1012B00021F4741108436860C6F86090FFF78CFA57
:1012C000044606E025E000BFFFF786FA001B02286F
:1012D00009D828688001F7D51BE000BFFFF77CFA2A
:1012E000001B022802D90320BDE8F88F286880017E
:1012F000F4D40EE00128F7D06868226A00F4803147
:10130000914204D1616A00F47010884201D001203A
:10131000EAE70020E8E70000001002400000424237
:1013200080044242200000200070004010B5401EA2
:10133000B0F1807F01D3012010BD4FF0E024606147
:101340000F21601700F01EFA0020A0610720206125
:10135000002010BDFEE701684A69D24352050FD450
:101360006FF480624A61002140F8301F20224273EE
:101370008173026942F00402026101730120704727
:10138000002070472DE9F84F0446C06A1E46934678
:101390000D4621680A6842F480620A60082807D076
:1013A000012805D010F5803F02D0206B112804D110
:1013B0002068016841F4807101604FF001195B46BB
:1013C000002249462046009600F0C6F84FF4007807
:1013D00040B120680068C00501D5C4F840800320F2
:1013E000BDE8F88F2069DFF884A0B0F5804F0FD0FA
:1013F0000620216800EAD51747F0F000086133465F
:101400005A460AF10601204600F0DAF858BB03E01C
:10141000E8B240F001001CE02168E8B20861334600
:101420005A465146204600F0CBF8E0B920684169A1
:1014300081690091016841F4807101605B4600227E
:1014400049462046009600F087F80028C1D147F0B1
:10145000F1002168086133465A465146204600F0A3
:10146000AFF80028BCD00120BAE70000020001005C
:10147000F8B50446C06A1E460D461746082807D030
:10148000012805D010F5803F02D0206B122804D12E
:101490002068016841F480710160134600224FF01A
:1014A00001112046009600F057F840B1206800680E
:1014B000C00502D54FF4007020640320F8BD2069F8
:1014C000B0F5804F0ED00620216800EAD51040F01C
:1014D000F000086133463A460B49204600F070F8A8
:1014E00078B902E005F0FE0000E0E8B2216808618A
:1014F000054933463A46891F204600F061F8002826
:10150000DCD00120F8BD00000800010070B51646CF
:101510000D4604460DE02046FFF71DFF08B10120EF
:1015200070BD681C05D0FFF757F9801BA84207D88B
:1015300035B120684069C0434007ECD4002070BD3D
:10154000002044F8300F20216173A073216941F01D
:10155000200121612073E2E72DE9F0471E46904605
:101560000D460446C1F30747DDF8209008E0701CE3
:1015700006D0FFF731F9A0EB0900B0420FD876B1E1
:101580002068012F18D0806925EA00000004000CB3
:1015900014D000214145EAD00020BDE8F0870020AA
:1015A00044F8300F20216173A073216941F02001BC
:1015B000216120730120F0E74069E5E70121E9E7B7
:1015C0002DE9F0479A4691460E46044600254FF015
:1015D0002008C1F3074725E020684069C043400563
:1015E00014D42068016841F40071016021686FF42F
:1015F00080604861256384F83D8084F83E50206C0B
:1016000040F00400206484F83C501FE0B9F1FF3F33
:1016100008D0FFF7E1F8A0EB0A0149450CD8B9F171
:10162000000F09D02068012F13D0806926EA00003E
:101630000004000C0BD0CFE744F8305F84F80D8035
:10164000A573206940F02000206125730120BDE8CA
:10165000F0874069EAE72DE9F041002590460E4603
:101660000446202717E04069C043C0060CD454F854
:10167000301B6FF01000486144F810596777A57768
:10168000206A2062257717E0FFF7A6F8A0EB080094
:10169000B04208D83EB120684169C9434906E2D446
:1016A0000020BDE8F08144F8305F6773A5732069BE
:1016B00040F02000206125730120F2E770B5164646
:1016C0000D4604460DE02046FFF745FE08B1012017
:1016D00070BD681C05D0FFF77FF8801BA84207D8B3
:1016E00035B120684069C0430006ECD4002070BDCD
:1016F000002044F8300F20216173A073216941F06C
:10170000200121612073E2E7FEE7704770477047D0
:10171000FFF716BB10B590B028216846FEF70BFD09
:1017200014210AA8FEF707FD022000900120049072
:1017300010200024059007946846FFF767FC0F20EF
:10174000CDE90A040C940D9400210AA80E94FFF729
:1017500081FB10B010BD7047FEE700000FB4084BCE
:1017600010B504A902AA039800F02CF8044602A9B7
:10177000002000F0D1F8204610BC5DF814FB0000FA
:10178000191900080907090E002804DB00F1E02000
:1017900080F80014704700F00F0000F1E02080F89E
:1017A000141D704702E008C8121F08C1002AFAD1B0
:1017B00070477047002001E001C1121F002AFBD1D1
:1017C000704700002DE9FF4F89B09B460446002575
:1017D00006E025280BD05A460B999047641C6D1CD7
:1017E00020780028F5D10DB02846BDE8F08F0027FD
:1017F000B8460122474900E0074314F8013F203B67
:1018000002FA03F00842F7D120782E2819D114F8F3
:10181000010F47F004072A280ED06FF02F0220781E
:10182000A0F1300109290CD808EB880102EB410135
:1018300000EB0108641CF2E70A98641C50F8048B62
:101840000A9020780028CED0642808D0692806D0D5
:1018500075281ED05A460B9990476D1C58E00A997E
:101860004FF00A0901C90A91002802DA40422D21ED
:1018700002E0390504D52B218DF82010012103E069
:10188000F90704D02021F7E78A4608AE0DE00021D1
:10189000FAE70A994FF00A0901C90A91F7E74946A0
:1018A000FEF754FC303106F8011D0028F7D1ADEBEE
:1018B000060000F12009780701D44FF00108C8455F
:1018C00002DDA8EB090000E000208046002706E0CA
:1018D00008A85A46C05D0B9990476D1C7F1C574560
:1018E000F6DB04E030205A460B9990476D1CB8F1A6
:1018F0000001A8F10108F5DC05E016F8010B5A46D5
:101900000B9990476D1CB9F10001A9F10109F4DCB4
:10191000641C65E7092801000A68531C0B601070FD
:1019200070470000114910B5A1F114000160D021E9
:1019300001710F4981600F49C1604FF47A710161F3
:10194000FEF705FD80B909481438FEF728FC58B9A0
:1019500006481438FEF75CFC30B9044800211438FE
:10196000FEF713FD002800D0022010BD8C000020DF
:10197000A086010000540040012000F039B8012881
:1019800005D04031C8B240F0800000F031B880315D
:10199000C8B2FAE710B5332000F02AF8322000F080
:1019A00027F83220FEF716FE282000F021F832201A
:1019B000FEF710FE012000F01BF83220FEF70AFEB1
:1019C000062000F015F83220FEF704FE0C2000F08F
:1019D0000FF83220FEF7FEFD022000F009F8322059
:1019E000FEF7F8FDBDE81040802000F001B80000CF
:1019F0001CB500F0F00141F00C028DF8042041F01C
:101A0000080100018DF8051040F00C018DF806105A
:101A100040F008008DF8070064200090042301AA1C
:101A20004E210248FFF7C8F81CBD0000240000202A
:101A30001CB500F0F00141F00D028DF8042041F0DA
:101A4000090100018DF8051040F00D018DF8061018
:101A500040F009008DF8070064200090042301AADB
:101A60004E210248FFF7A8F81CBD0000240000200A
:101A700010B5044602E0641CFFF7DAFF2078002866
:101A8000F9D110BD1CB5FFF763F9FFF743FE3648E7
:101A9000816941F004018161816901F004010091D3
:101AA000816941F0080181618069304900F00800D6
:101AB00000902F484FF4804201602E494160002180
:101AC0008160C0E9031241618161C1610162FEF779
:101AD0008DFEFFF75FFFFFF74FFF3220FEF77AFD25
:101AE00000210120FFF74BFF23A0FFF7C1FF0121D9
:101AF0000220FFF744FF21A0FFF7BAFF4FF4FA706E
:101B0000FEF768FDFFF70EFF1F4D05F10C04287866
:101B100060712879A071287AE0711548D5E903121F
:101B20005430FEF74AFCFFF727FF3220FEF752FD44
:101B30000F4968465431FEF77FFB0098E860019832
:101B40002861E07900900A48A37962790FA1BC303E
:101B5000FFF704FE00210120FFF711FF0448BC300D
:101B6000FFF786FFE4E70000001002400054004049
:101B700024000020A0860100555445004B544D54CC
:101B80002D5448494E4800000000002025302E32D8
:101B9000643A25302E32643A25302E32642000001B
:101BA000000000000000000001020304060708090D
:101BB0000000000001020304D81B00080000002000
:101BC00024000000A4170008FC1B000824000020CB
:101BD000D4040000B417000800000000000000005A
:101BE00000000000000000000000000001000000F4
:0C1BF00010000000000000000024F400C1
:04000005080000ED02
:00000001FF
